{
  "abi": [
    {
      "inputs": [
        {
          "internalType": "address",
          "name": "_governance",
          "type": "address"
        }
      ],
      "stateMutability": "nonpayable",
      "type": "constructor"
    },
    {
      "anonymous": false,
      "inputs": [
        {
          "indexed": false,
          "internalType": "address",
          "name": "_pendingGovenance",
          "type": "address"
        }
      ],
      "name": "GovenanceProposed",
      "type": "event"
    },
    {
      "anonymous": false,
      "inputs": [
        {
          "indexed": false,
          "internalType": "address",
          "name": "_govenance",
          "type": "address"
        }
      ],
      "name": "GovenanceUpdated",
      "type": "event"
    },
    {
      "inputs": [],
      "name": "acceptGovernance",
      "outputs": [],
      "stateMutability": "nonpayable",
      "type": "function"
    },
    {
      "inputs": [],
      "name": "governance",
      "outputs": [
        {
          "internalType": "address",
          "name": "",
          "type": "address"
        }
      ],
      "stateMutability": "view",
      "type": "function"
    },
    {
      "inputs": [],
      "name": "pendingGovernance",
      "outputs": [
        {
          "internalType": "address",
          "name": "",
          "type": "address"
        }
      ],
      "stateMutability": "view",
      "type": "function"
    },
    {
      "inputs": [
        {
          "internalType": "address",
          "name": "_pendingGovernance",
          "type": "address"
        }
      ],
      "name": "proposeGovernance",
      "outputs": [],
      "stateMutability": "nonpayable",
      "type": "function"
    }
  ],
  "bytecode": {
    "object": "0x608060405234801561001057600080fd5b5060405161045838038061045883398101604081905261002f916100ed565b6100388161003e565b5061011d565b336001600160a01b038216141561008d5760405162461bcd60e51b815260206004820152600f60248201526e696e76616c6964206164647265737360881b604482015260640160405180910390fd5b61009681610099565b50565b600080546001600160a01b0319166001600160a01b0383169081179091556040519081527f82d3cb1aac85eaba89545486a5bdf332a6649ee2e53bccf1e2aec0683afced0e9060200160405180910390a150565b6000602082840312156100ff57600080fd5b81516001600160a01b038116811461011657600080fd5b9392505050565b61032c8061012c6000396000f3fe608060405234801561001057600080fd5b506004361061004c5760003560e01c8063238efcbc146100515780635aa6e6751461005b578063c373a08e1461008a578063f39c38a01461009d575b600080fd5b6100596100b0565b005b60005461006e906001600160a01b031681565b6040516001600160a01b03909116815260200160405180910390f35b6100596100983660046102c6565b61012f565b60015461006e906001600160a01b031681565b6001546001600160a01b0316336001600160a01b0316146101185760405162461bcd60e51b815260206004820152601760248201527f70656e64696e6720676f7665726e616e6365206f6e6c7900000000000000000060448201526064015b60405180910390fd5b60015461012d906001600160a01b0316610278565b565b6000546001600160a01b0316336001600160a01b0316146101845760405162461bcd60e51b815260206004820152600f60248201526e676f7665726e616e6365206f6e6c7960881b604482015260640161010f565b6001600160a01b0381166101cc5760405162461bcd60e51b815260206004820152600f60248201526e696e76616c6964206164647265737360881b604482015260640161010f565b6000546001600160a01b03828116911614156102235760405162461bcd60e51b8152602060048201526016602482015275616c72656164792074686520676f7665726e616e636560501b604482015260640161010f565b600180546001600160a01b0319166001600160a01b0383169081179091556040519081527f9a35a2aeba8eb8a43609155078e2fd5cbafd797e0a76ec701999554effda58e4906020015b60405180910390a150565b600080546001600160a01b0319166001600160a01b0383169081179091556040519081527f82d3cb1aac85eaba89545486a5bdf332a6649ee2e53bccf1e2aec0683afced0e9060200161026d565b6000602082840312156102d857600080fd5b81356001600160a01b03811681146102ef57600080fd5b939250505056fea2646970667358221220b2bb68ff3211c6419dced90347429c657bebde92d79bd27c163534ca7e8fe1a764736f6c63430008090033",
    "linkReferences": {}
  },
  "methodIdentifiers": {
    "acceptGovernance()": "238efcbc",
    "governance()": "5aa6e675",
    "pendingGovernance()": "f39c38a0",
    "proposeGovernance(address)": "c373a08e"
  },
  "id": 37
}