{
  "abi": [
    {
      "inputs": [],
      "stateMutability": "nonpayable",
      "type": "constructor"
    },
    {
      "anonymous": false,
      "inputs": [
        {
          "indexed": true,
          "internalType": "address",
          "name": "_accessControlManager",
          "type": "address"
        }
      ],
      "name": "AccessControlManagerUpdated",
      "type": "event"
    },
    {
      "anonymous": false,
      "inputs": [
        {
          "indexed": false,
          "internalType": "address",
          "name": "previousAdmin",
          "type": "address"
        },
        {
          "indexed": false,
          "internalType": "address",
          "name": "newAdmin",
          "type": "address"
        }
      ],
      "name": "AdminChanged",
      "type": "event"
    },
    {
      "anonymous": false,
      "inputs": [
        {
          "indexed": true,
          "internalType": "address",
          "name": "account",
          "type": "address"
        },
        {
          "indexed": true,
          "internalType": "address",
          "name": "operator",
          "type": "address"
        },
        {
          "indexed": false,
          "internalType": "bool",
          "name": "approved",
          "type": "bool"
        }
      ],
      "name": "ApprovalForAll",
      "type": "event"
    },
    {
      "anonymous": false,
      "inputs": [
        {
          "indexed": true,
          "internalType": "address",
          "name": "beacon",
          "type": "address"
        }
      ],
      "name": "BeaconUpgraded",
      "type": "event"
    },
    {
      "anonymous": false,
      "inputs": [
        {
          "indexed": false,
          "internalType": "address",
          "name": "_guardian",
          "type": "address"
        }
      ],
      "name": "GatekeeperUpdated",
      "type": "event"
    },
    {
      "anonymous": false,
      "inputs": [
        {
          "indexed": false,
          "internalType": "address",
          "name": "_pendingGovenance",
          "type": "address"
        }
      ],
      "name": "GovenanceProposed",
      "type": "event"
    },
    {
      "anonymous": false,
      "inputs": [
        {
          "indexed": false,
          "internalType": "address",
          "name": "_govenance",
          "type": "address"
        }
      ],
      "name": "GovenanceUpdated",
      "type": "event"
    },
    {
      "anonymous": false,
      "inputs": [
        {
          "indexed": false,
          "internalType": "address",
          "name": "account",
          "type": "address"
        }
      ],
      "name": "Paused",
      "type": "event"
    },
    {
      "anonymous": false,
      "inputs": [
        {
          "indexed": true,
          "internalType": "uint256",
          "name": "_tokenId",
          "type": "uint256"
        },
        {
          "indexed": true,
          "internalType": "uint248",
          "name": "_newAmount",
          "type": "uint248"
        },
        {
          "indexed": false,
          "internalType": "uint8",
          "name": "_newlockPeriod",
          "type": "uint8"
        },
        {
          "indexed": false,
          "internalType": "address[]",
          "name": "_vaults",
          "type": "address[]"
        }
      ],
      "name": "StakeExtended",
      "type": "event"
    },
    {
      "anonymous": false,
      "inputs": [
        {
          "indexed": true,
          "internalType": "address",
          "name": "_user",
          "type": "address"
        },
        {
          "indexed": true,
          "internalType": "uint256",
          "name": "_tokenId",
          "type": "uint256"
        },
        {
          "indexed": true,
          "internalType": "uint248",
          "name": "_amount",
          "type": "uint248"
        },
        {
          "indexed": false,
          "internalType": "uint8",
          "name": "_lockPeriod",
          "type": "uint8"
        },
        {
          "indexed": false,
          "internalType": "uint256",
          "name": "_startTime",
          "type": "uint256"
        }
      ],
      "name": "Staked",
      "type": "event"
    },
    {
      "anonymous": false,
      "inputs": [
        {
          "indexed": false,
          "internalType": "string",
          "name": "_contractURI",
          "type": "string"
        }
      ],
      "name": "StakingContractURIUpdated",
      "type": "event"
    },
    {
      "anonymous": false,
      "inputs": [
        {
          "indexed": true,
          "internalType": "uint256",
          "name": "_newLimit",
          "type": "uint256"
        }
      ],
      "name": "StakingLimitUpdated",
      "type": "event"
    },
    {
      "anonymous": false,
      "inputs": [
        {
          "indexed": true,
          "internalType": "address",
          "name": "operator",
          "type": "address"
        },
        {
          "indexed": true,
          "internalType": "address",
          "name": "from",
          "type": "address"
        },
        {
          "indexed": true,
          "internalType": "address",
          "name": "to",
          "type": "address"
        },
        {
          "indexed": false,
          "internalType": "uint256[]",
          "name": "ids",
          "type": "uint256[]"
        },
        {
          "indexed": false,
          "internalType": "uint256[]",
          "name": "values",
          "type": "uint256[]"
        }
      ],
      "name": "TransferBatch",
      "type": "event"
    },
    {
      "anonymous": false,
      "inputs": [
        {
          "indexed": true,
          "internalType": "address",
          "name": "operator",
          "type": "address"
        },
        {
          "indexed": true,
          "internalType": "address",
          "name": "from",
          "type": "address"
        },
        {
          "indexed": true,
          "internalType": "address",
          "name": "to",
          "type": "address"
        },
        {
          "indexed": false,
          "internalType": "uint256",
          "name": "id",
          "type": "uint256"
        },
        {
          "indexed": false,
          "internalType": "uint256",
          "name": "value",
          "type": "uint256"
        }
      ],
      "name": "TransferSingle",
      "type": "event"
    },
    {
      "anonymous": false,
      "inputs": [
        {
          "indexed": false,
          "internalType": "string",
          "name": "value",
          "type": "string"
        },
        {
          "indexed": true,
          "internalType": "uint256",
          "name": "id",
          "type": "uint256"
        }
      ],
      "name": "URI",
      "type": "event"
    },
    {
      "anonymous": false,
      "inputs": [
        {
          "indexed": false,
          "internalType": "address",
          "name": "account",
          "type": "address"
        }
      ],
      "name": "Unpaused",
      "type": "event"
    },
    {
      "anonymous": false,
      "inputs": [
        {
          "indexed": true,
          "internalType": "address",
          "name": "_user",
          "type": "address"
        },
        {
          "indexed": true,
          "internalType": "uint256",
          "name": "_tokenId",
          "type": "uint256"
        },
        {
          "indexed": true,
          "internalType": "uint248",
          "name": "_amount",
          "type": "uint248"
        },
        {
          "indexed": false,
          "internalType": "uint8",
          "name": "_lockPeriod",
          "type": "uint8"
        },
        {
          "indexed": false,
          "internalType": "uint256",
          "name": "_startTime",
          "type": "uint256"
        }
      ],
      "name": "Unstaked",
      "type": "event"
    },
    {
      "anonymous": false,
      "inputs": [
        {
          "indexed": true,
          "internalType": "address",
          "name": "implementation",
          "type": "address"
        }
      ],
      "name": "Upgraded",
      "type": "event"
    },
    {
      "inputs": [],
      "name": "MAX_LOCK_PERIOD",
      "outputs": [
        {
          "internalType": "uint8",
          "name": "",
          "type": "uint8"
        }
      ],
      "stateMutability": "view",
      "type": "function"
    },
    {
      "inputs": [],
      "name": "SECONDS_PER_MONTH",
      "outputs": [
        {
          "internalType": "uint256",
          "name": "",
          "type": "uint256"
        }
      ],
      "stateMutability": "view",
      "type": "function"
    },
    {
      "inputs": [],
      "name": "YOP_ADDRESS",
      "outputs": [
        {
          "internalType": "address",
          "name": "",
          "type": "address"
        }
      ],
      "stateMutability": "view",
      "type": "function"
    },
    {
      "inputs": [],
      "name": "acceptGovernance",
      "outputs": [],
      "stateMutability": "nonpayable",
      "type": "function"
    },
    {
      "inputs": [],
      "name": "accessControlManager",
      "outputs": [
        {
          "internalType": "address",
          "name": "",
          "type": "address"
        }
      ],
      "stateMutability": "view",
      "type": "function"
    },
    {
      "inputs": [
        {
          "internalType": "address",
          "name": "account",
          "type": "address"
        },
        {
          "internalType": "uint256",
          "name": "id",
          "type": "uint256"
        }
      ],
      "name": "balanceOf",
      "outputs": [
        {
          "internalType": "uint256",
          "name": "",
          "type": "uint256"
        }
      ],
      "stateMutability": "view",
      "type": "function"
    },
    {
      "inputs": [
        {
          "internalType": "address[]",
          "name": "accounts",
          "type": "address[]"
        },
        {
          "internalType": "uint256[]",
          "name": "ids",
          "type": "uint256[]"
        }
      ],
      "name": "balanceOfBatch",
      "outputs": [
        {
          "internalType": "uint256[]",
          "name": "",
          "type": "uint256[]"
        }
      ],
      "stateMutability": "view",
      "type": "function"
    },
    {
      "inputs": [
        {
          "internalType": "uint256[]",
          "name": "_stakeIds",
          "type": "uint256[]"
        }
      ],
      "name": "compoundForStaking",
      "outputs": [],
      "stateMutability": "nonpayable",
      "type": "function"
    },
    {
      "inputs": [
        {
          "internalType": "address",
          "name": "_user",
          "type": "address"
        },
        {
          "internalType": "uint256",
          "name": "_topupStakeId",
          "type": "uint256"
        }
      ],
      "name": "compoundForUser",
      "outputs": [],
      "stateMutability": "nonpayable",
      "type": "function"
    },
    {
      "inputs": [
        {
          "internalType": "address[]",
          "name": "_users",
          "type": "address[]"
        },
        {
          "internalType": "uint256[]",
          "name": "_topupStakes",
          "type": "uint256[]"
        }
      ],
      "name": "compoundWithVaultRewards",
      "outputs": [],
      "stateMutability": "nonpayable",
      "type": "function"
    },
    {
      "inputs": [],
      "name": "contractURI",
      "outputs": [
        {
          "internalType": "string",
          "name": "",
          "type": "string"
        }
      ],
      "stateMutability": "view",
      "type": "function"
    },
    {
      "inputs": [
        {
          "internalType": "uint256",
          "name": "_stakeId",
          "type": "uint256"
        },
        {
          "internalType": "uint8",
          "name": "_additionalDuration",
          "type": "uint8"
        },
        {
          "internalType": "uint248",
          "name": "_additionalAmount",
          "type": "uint248"
        },
        {
          "internalType": "address[]",
          "name": "_vaultsToUpdate",
          "type": "address[]"
        }
      ],
      "name": "extendStake",
      "outputs": [],
      "stateMutability": "nonpayable",
      "type": "function"
    },
    {
      "inputs": [],
      "name": "gatekeeper",
      "outputs": [
        {
          "internalType": "address",
          "name": "",
          "type": "address"
        }
      ],
      "stateMutability": "view",
      "type": "function"
    },
    {
      "inputs": [],
      "name": "governance",
      "outputs": [
        {
          "internalType": "address",
          "name": "",
          "type": "address"
        }
      ],
      "stateMutability": "view",
      "type": "function"
    },
    {
      "inputs": [
        {
          "internalType": "string",
          "name": "_name",
          "type": "string"
        },
        {
          "internalType": "string",
          "name": "_symbol",
          "type": "string"
        },
        {
          "internalType": "address",
          "name": "_governance",
          "type": "address"
        },
        {
          "internalType": "address",
          "name": "_gatekeeper",
          "type": "address"
        },
        {
          "internalType": "address",
          "name": "_yopRewards",
          "type": "address"
        },
        {
          "internalType": "string",
          "name": "_uri",
          "type": "string"
        },
        {
          "internalType": "string",
          "name": "_contractURI",
          "type": "string"
        },
        {
          "internalType": "address",
          "name": "_owner",
          "type": "address"
        },
        {
          "internalType": "address",
          "name": "_accessControlManager",
          "type": "address"
        }
      ],
      "name": "initialize",
      "outputs": [],
      "stateMutability": "nonpayable",
      "type": "function"
    },
    {
      "inputs": [
        {
          "internalType": "address",
          "name": "account",
          "type": "address"
        },
        {
          "internalType": "address",
          "name": "operator",
          "type": "address"
        }
      ],
      "name": "isApprovedForAll",
      "outputs": [
        {
          "internalType": "bool",
          "name": "",
          "type": "bool"
        }
      ],
      "stateMutability": "view",
      "type": "function"
    },
    {
      "inputs": [],
      "name": "minStakeAmount",
      "outputs": [
        {
          "internalType": "uint256",
          "name": "",
          "type": "uint256"
        }
      ],
      "stateMutability": "view",
      "type": "function"
    },
    {
      "inputs": [],
      "name": "name",
      "outputs": [
        {
          "internalType": "string",
          "name": "",
          "type": "string"
        }
      ],
      "stateMutability": "view",
      "type": "function"
    },
    {
      "inputs": [],
      "name": "owner",
      "outputs": [
        {
          "internalType": "address",
          "name": "",
          "type": "address"
        }
      ],
      "stateMutability": "view",
      "type": "function"
    },
    {
      "inputs": [
        {
          "internalType": "uint256",
          "name": "",
          "type": "uint256"
        }
      ],
      "name": "owners",
      "outputs": [
        {
          "internalType": "address",
          "name": "",
          "type": "address"
        }
      ],
      "stateMutability": "view",
      "type": "function"
    },
    {
      "inputs": [],
      "name": "pause",
      "outputs": [],
      "stateMutability": "nonpayable",
      "type": "function"
    },
    {
      "inputs": [],
      "name": "paused",
      "outputs": [
        {
          "internalType": "bool",
          "name": "",
          "type": "bool"
        }
      ],
      "stateMutability": "view",
      "type": "function"
    },
    {
      "inputs": [],
      "name": "pendingGovernance",
      "outputs": [
        {
          "internalType": "address",
          "name": "",
          "type": "address"
        }
      ],
      "stateMutability": "view",
      "type": "function"
    },
    {
      "inputs": [
        {
          "internalType": "address",
          "name": "_pendingGovernance",
          "type": "address"
        }
      ],
      "name": "proposeGovernance",
      "outputs": [],
      "stateMutability": "nonpayable",
      "type": "function"
    },
    {
      "inputs": [
        {
          "internalType": "address",
          "name": "from",
          "type": "address"
        },
        {
          "internalType": "address",
          "name": "to",
          "type": "address"
        },
        {
          "internalType": "uint256[]",
          "name": "ids",
          "type": "uint256[]"
        },
        {
          "internalType": "uint256[]",
          "name": "amounts",
          "type": "uint256[]"
        },
        {
          "internalType": "bytes",
          "name": "data",
          "type": "bytes"
        }
      ],
      "name": "safeBatchTransferFrom",
      "outputs": [],
      "stateMutability": "nonpayable",
      "type": "function"
    },
    {
      "inputs": [
        {
          "internalType": "address",
          "name": "from",
          "type": "address"
        },
        {
          "internalType": "address",
          "name": "to",
          "type": "address"
        },
        {
          "internalType": "uint256",
          "name": "id",
          "type": "uint256"
        },
        {
          "internalType": "uint256",
          "name": "amount",
          "type": "uint256"
        },
        {
          "internalType": "bytes",
          "name": "data",
          "type": "bytes"
        }
      ],
      "name": "safeTransferFrom",
      "outputs": [],
      "stateMutability": "nonpayable",
      "type": "function"
    },
    {
      "inputs": [
        {
          "internalType": "address",
          "name": "_accessControlManager",
          "type": "address"
        }
      ],
      "name": "setAccessControlManager",
      "outputs": [],
      "stateMutability": "nonpayable",
      "type": "function"
    },
    {
      "inputs": [
        {
          "internalType": "address",
          "name": "operator",
          "type": "address"
        },
        {
          "internalType": "bool",
          "name": "approved",
          "type": "bool"
        }
      ],
      "name": "setApprovalForAll",
      "outputs": [],
      "stateMutability": "nonpayable",
      "type": "function"
    },
    {
      "inputs": [
        {
          "internalType": "string",
          "name": "_contractURI",
          "type": "string"
        }
      ],
      "name": "setContractURI",
      "outputs": [],
      "stateMutability": "nonpayable",
      "type": "function"
    },
    {
      "inputs": [
        {
          "internalType": "address",
          "name": "_gatekeeper",
          "type": "address"
        }
      ],
      "name": "setGatekeeper",
      "outputs": [],
      "stateMutability": "nonpayable",
      "type": "function"
    },
    {
      "inputs": [
        {
          "internalType": "uint256",
          "name": "_minAmount",
          "type": "uint256"
        }
      ],
      "name": "setMinStakeAmount",
      "outputs": [],
      "stateMutability": "nonpayable",
      "type": "function"
    },
    {
      "inputs": [
        {
          "internalType": "uint256",
          "name": "_limit",
          "type": "uint256"
        }
      ],
      "name": "setStakingLimit",
      "outputs": [],
      "stateMutability": "nonpayable",
      "type": "function"
    },
    {
      "inputs": [
        {
          "internalType": "uint248",
          "name": "_amount",
          "type": "uint248"
        },
        {
          "internalType": "uint8",
          "name": "_lockPeriod",
          "type": "uint8"
        }
      ],
      "name": "stake",
      "outputs": [
        {
          "internalType": "uint256",
          "name": "",
          "type": "uint256"
        }
      ],
      "stateMutability": "nonpayable",
      "type": "function"
    },
    {
      "inputs": [
        {
          "internalType": "uint248",
          "name": "_amount",
          "type": "uint248"
        },
        {
          "internalType": "uint8",
          "name": "_lockPeriod",
          "type": "uint8"
        },
        {
          "internalType": "address[]",
          "name": "_vaultsToBoost",
          "type": "address[]"
        }
      ],
      "name": "stakeAndBoost",
      "outputs": [
        {
          "internalType": "uint256",
          "name": "",
          "type": "uint256"
        }
      ],
      "stateMutability": "nonpayable",
      "type": "function"
    },
    {
      "inputs": [
        {
          "internalType": "uint248",
          "name": "_amount",
          "type": "uint248"
        },
        {
          "internalType": "uint8",
          "name": "_lockPeriod",
          "type": "uint8"
        },
        {
          "internalType": "address",
          "name": "_to",
          "type": "address"
        },
        {
          "internalType": "address[]",
          "name": "_vaultsToBoost",
          "type": "address[]"
        }
      ],
      "name": "stakeAndBoostForUser",
      "outputs": [
        {
          "internalType": "uint256",
          "name": "",
          "type": "uint256"
        }
      ],
      "stateMutability": "nonpayable",
      "type": "function"
    },
    {
      "inputs": [
        {
          "internalType": "uint248",
          "name": "_amount",
          "type": "uint248"
        },
        {
          "internalType": "uint8",
          "name": "_lockPeriod",
          "type": "uint8"
        },
        {
          "internalType": "address",
          "name": "_to",
          "type": "address"
        }
      ],
      "name": "stakeForUser",
      "outputs": [
        {
          "internalType": "uint256",
          "name": "",
          "type": "uint256"
        }
      ],
      "stateMutability": "nonpayable",
      "type": "function"
    },
    {
      "inputs": [
        {
          "internalType": "uint256",
          "name": "",
          "type": "uint256"
        }
      ],
      "name": "stakes",
      "outputs": [
        {
          "internalType": "uint8",
          "name": "lockPeriod",
          "type": "uint8"
        },
        {
          "internalType": "uint248",
          "name": "amount",
          "type": "uint248"
        },
        {
          "internalType": "uint256",
          "name": "startTime",
          "type": "uint256"
        },
        {
          "internalType": "uint256",
          "name": "lastTransferTime",
          "type": "uint256"
        }
      ],
      "stateMutability": "view",
      "type": "function"
    },
    {
      "inputs": [
        {
          "internalType": "address",
          "name": "_user",
          "type": "address"
        }
      ],
      "name": "stakesFor",
      "outputs": [
        {
          "internalType": "uint256[]",
          "name": "",
          "type": "uint256[]"
        }
      ],
      "stateMutability": "view",
      "type": "function"
    },
    {
      "inputs": [],
      "name": "stakingLimit",
      "outputs": [
        {
          "internalType": "uint256",
          "name": "",
          "type": "uint256"
        }
      ],
      "stateMutability": "view",
      "type": "function"
    },
    {
      "inputs": [
        {
          "internalType": "bytes4",
          "name": "interfaceId",
          "type": "bytes4"
        }
      ],
      "name": "supportsInterface",
      "outputs": [
        {
          "internalType": "bool",
          "name": "",
          "type": "bool"
        }
      ],
      "stateMutability": "view",
      "type": "function"
    },
    {
      "inputs": [],
      "name": "symbol",
      "outputs": [
        {
          "internalType": "string",
          "name": "",
          "type": "string"
        }
      ],
      "stateMutability": "view",
      "type": "function"
    },
    {
      "inputs": [],
      "name": "totalSupply",
      "outputs": [
        {
          "internalType": "uint256",
          "name": "",
          "type": "uint256"
        }
      ],
      "stateMutability": "view",
      "type": "function"
    },
    {
      "inputs": [],
      "name": "totalWorkingSupply",
      "outputs": [
        {
          "internalType": "uint256",
          "name": "",
          "type": "uint256"
        }
      ],
      "stateMutability": "view",
      "type": "function"
    },
    {
      "inputs": [],
      "name": "unpause",
      "outputs": [],
      "stateMutability": "nonpayable",
      "type": "function"
    },
    {
      "inputs": [
        {
          "internalType": "address",
          "name": "_to",
          "type": "address"
        }
      ],
      "name": "unstakeAll",
      "outputs": [],
      "stateMutability": "nonpayable",
      "type": "function"
    },
    {
      "inputs": [
        {
          "internalType": "address",
          "name": "_to",
          "type": "address"
        },
        {
          "internalType": "address[]",
          "name": "_vaultsToBoost",
          "type": "address[]"
        }
      ],
      "name": "unstakeAllAndBoost",
      "outputs": [],
      "stateMutability": "nonpayable",
      "type": "function"
    },
    {
      "inputs": [
        {
          "internalType": "uint256",
          "name": "_stakeId",
          "type": "uint256"
        },
        {
          "internalType": "address",
          "name": "_to",
          "type": "address"
        }
      ],
      "name": "unstakeSingle",
      "outputs": [],
      "stateMutability": "nonpayable",
      "type": "function"
    },
    {
      "inputs": [
        {
          "internalType": "uint256",
          "name": "_stakeId",
          "type": "uint256"
        },
        {
          "internalType": "address",
          "name": "_to",
          "type": "address"
        },
        {
          "internalType": "address[]",
          "name": "_vaultsToBoost",
          "type": "address[]"
        }
      ],
      "name": "unstakeSingleAndBoost",
      "outputs": [],
      "stateMutability": "nonpayable",
      "type": "function"
    },
    {
      "inputs": [
        {
          "internalType": "address",
          "name": "newImplementation",
          "type": "address"
        }
      ],
      "name": "upgradeTo",
      "outputs": [],
      "stateMutability": "nonpayable",
      "type": "function"
    },
    {
      "inputs": [
        {
          "internalType": "address",
          "name": "newImplementation",
          "type": "address"
        },
        {
          "internalType": "bytes",
          "name": "data",
          "type": "bytes"
        }
      ],
      "name": "upgradeToAndCall",
      "outputs": [],
      "stateMutability": "payable",
      "type": "function"
    },
    {
      "inputs": [
        {
          "internalType": "uint256",
          "name": "",
          "type": "uint256"
        }
      ],
      "name": "uri",
      "outputs": [
        {
          "internalType": "string",
          "name": "",
          "type": "string"
        }
      ],
      "stateMutability": "view",
      "type": "function"
    },
    {
      "inputs": [
        {
          "internalType": "address",
          "name": "_user",
          "type": "address"
        }
      ],
      "name": "workingBalanceOf",
      "outputs": [
        {
          "internalType": "uint256",
          "name": "",
          "type": "uint256"
        }
      ],
      "stateMutability": "view",
      "type": "function"
    },
    {
      "inputs": [
        {
          "internalType": "uint256",
          "name": "_stakeId",
          "type": "uint256"
        }
      ],
      "name": "workingBalanceOfStake",
      "outputs": [
        {
          "internalType": "uint256",
          "name": "",
          "type": "uint256"
        }
      ],
      "stateMutability": "view",
      "type": "function"
    },
    {
      "inputs": [],
      "name": "yopRewards",
      "outputs": [
        {
          "internalType": "address",
          "name": "",
          "type": "address"
        }
      ],
      "stateMutability": "view",
      "type": "function"
    }
  ],
  "bytecode": {
    "object": "0x60a0604052306080523480156200001557600080fd5b50600054610100900460ff16620000335760005460ff16156200003d565b6200003d620000e2565b620000a55760405162461bcd60e51b815260206004820152602e60248201527f496e697469616c697a61626c653a20636f6e747261637420697320616c72656160448201526d191e481a5b9a5d1a585b1a5e995960921b606482015260840160405180910390fd5b600054610100900460ff16158015620000c8576000805461ffff19166101011790555b8015620000db576000805461ff00191690555b5062000106565b6000620000fa306200010060201b62001f901760201c565b15905090565b3b151590565b608051616196620001376000396000818161113a0152818161117a015281816113c9015261140901526161966000f3fe6080604052600436106103345760003560e01c80636cb455b7116101ab578063c373a08e116100f7578063f242432a11610095578063f55401621161006f578063f5540162146109c9578063f7c6e50a146109f0578063fbb9795614610a10578063fec87daf14610a3057600080fd5b8063f242432a14610969578063f39c38a014610989578063f41b1906146109a957600080fd5b8063e8a3d485116100d1578063e8a3d485146108d4578063e985e9c5146108e9578063eb4af04514610932578063f18876841461095257600080fd5b8063c373a08e14610848578063c9ccd2a014610868578063d5a44f861461088857600080fd5b8063938e3d7b11610164578063a22cb4651161013e578063a22cb465146107c7578063a59c9c27146107e7578063b4a0bdf314610807578063be4499ea1461082857600080fd5b8063938e3d7b1461077257806395d89b4114610792578063a0d6ff9a146107a757600080fd5b80636cb455b7146106bc57806371ed92fa146106dc5780638456cb59146106fc57806384758fff146107115780638476a46f146107315780638da5cb5b1461075157600080fd5b80632c15d56611610285578063471fcb411161022357806355ba2f4f116101fd57806355ba2f4f146106465780635aa6e6751461065d5780635c975abb1461067d5780636076d8d61461069c57600080fd5b8063471fcb41146105f25780634e1273f4146106135780634f1ef2861461063357600080fd5b80633659cfe61161025f5780633659cfe6146105755780633d00028a146105955780633f4ba83a146105b55780633f9769b8146105ca57600080fd5b80632c15d566146105155780632eb2c2d6146105355780633180825f1461055557600080fd5b80630e89341c116102f257806318160ddd116102cc57806318160ddd146104a6578063238efcbc146104bc57806324384783146104d157806325a1dfe0146104e857600080fd5b80630e89341c1461044f57806310786deb1461046f57806316af9cf61461048657600080fd5b8062fdd58e1461033957806301ffc9a71461036c578063025e7c271461039c57806306fdde03146103eb5780630c7c97c71461040d5780630e32cb861461042d575b600080fd5b34801561034557600080fd5b50610359610354366004614f57565b610a50565b6040519081526020015b60405180910390f35b34801561037857600080fd5b5061038c610387366004614f97565b610aec565b6040519015158152602001610363565b3480156103a857600080fd5b506103d36103b7366004614fb4565b610139602052600090815260409020546001600160a01b031681565b6040516001600160a01b039091168152602001610363565b3480156103f757600080fd5b50610400610b3c565b6040516103639190615025565b34801561041957600080fd5b50610359610428366004615038565b610bcb565b34801561043957600080fd5b5061044d610448366004615038565b610cec565b005b34801561045b57600080fd5b5061040061046a366004614fb4565b610d2b565b34801561047b57600080fd5b506103596228206f81565b34801561049257600080fd5b506103596104a136600461507b565b610dbf565b3480156104b257600080fd5b5061013554610359565b3480156104c857600080fd5b5061044d610dde565b3480156104dd57600080fd5b506103596101345481565b3480156104f457600080fd5b50610508610503366004615038565b610e58565b60405161036391906150f9565b34801561052157600080fd5b50610359610530366004615157565b610ec4565b34801561054157600080fd5b5061044d610550366004615300565b610f21565b34801561056157600080fd5b5061044d610570366004614f57565b610fb8565b34801561058157600080fd5b5061044d610590366004615038565b61112f565b3480156105a157600080fd5b5061044d6105b03660046153a9565b6111f5565b3480156105c157600080fd5b5061044d61125a565b3480156105d657600080fd5b506103d373ae1eaae3f627aaca434127644371b67b1844405181565b3480156105fe57600080fd5b50610136546103d3906001600160a01b031681565b34801561061f57600080fd5b5061050861062e3660046153ea565b611295565b61044d6106413660046154b4565b6113be565b34801561065257600080fd5b5061035961013a5481565b34801561066957600080fd5b506097546103d3906001600160a01b031681565b34801561068957600080fd5b50609954600160a01b900460ff1661038c565b3480156106a857600080fd5b5061044d6106b73660046154f7565b611478565b3480156106c857600080fd5b5061044d6106d7366004614fb4565b611510565b3480156106e857600080fd5b5061044d6106f7366004615556565b611581565b34801561070857600080fd5b5061044d6115b5565b34801561071d57600080fd5b5061035961072c366004614fb4565b6115d2565b34801561073d57600080fd5b5061044d61074c366004615582565b611658565b34801561075d57600080fd5b50610132546103d3906001600160a01b031681565b34801561077e57600080fd5b5061044d61078d3660046155f0565b611a9c565b34801561079e57600080fd5b50610400611ad8565b3480156107b357600080fd5b5061044d6107c2366004615038565b611ae6565b3480156107d357600080fd5b5061044d6107e2366004615632565b611b19565b3480156107f357600080fd5b506099546103d3906001600160a01b031681565b34801561081357600080fd5b50610137546103d3906001600160a01b031681565b34801561083457600080fd5b50610359610843366004615669565b611b24565b34801561085457600080fd5b5061044d610863366004615038565b611b5c565b34801561087457600080fd5b50610359610883366004615693565b611c61565b34801561089457600080fd5b506108a86108a3366004614fb4565b611cbf565b6040805160ff90951685526001600160f81b039093166020850152918301526060820152608001610363565b3480156108e057600080fd5b50610400611d07565b3480156108f557600080fd5b5061038c6109043660046156d0565b6001600160a01b03918216600090815260666020908152604080832093909416825291909152205460ff1690565b34801561093e57600080fd5b5061044d61094d366004614fb4565b611d15565b34801561095e57600080fd5b506103596101335481565b34801561097557600080fd5b5061044d6109843660046156fa565b611d4e565b34801561099557600080fd5b506098546103d3906001600160a01b031681565b3480156109b557600080fd5b5061044d6109c436600461575e565b611dd5565b3480156109d557600080fd5b506109de603c81565b60405160ff9091168152602001610363565b3480156109fc57600080fd5b5061044d610a0b36600461585e565b611eb0565b348015610a1c57600080fd5b5061044d610a2b366004615038565b611f01565b348015610a3c57600080fd5b5061044d610a4b3660046158b0565b611f3d565b60006001600160a01b038316610ac15760405162461bcd60e51b815260206004820152602b60248201527f455243313135353a2062616c616e636520717565727920666f7220746865207a60448201526a65726f206164647265737360a81b60648201526084015b60405180910390fd5b5060008181526065602090815260408083206001600160a01b03861684529091529020545b92915050565b60006001600160e01b03198216636cdb3d1360e11b1480610b1d57506001600160e01b031982166303a24d0760e21b145b80610ae657506301ffc9a760e01b6001600160e01b0319831614610ae6565b61012f8054610b4a906158d6565b80601f0160208091040260200160405190810160405280929190818152602001828054610b76906158d6565b8015610bc35780601f10610b9857610100808354040283529160200191610bc3565b820191906000526020600020905b815481529060010190602001808311610ba657829003601f168201915b505050505081565b6001600160a01b038116600090815261013860209081526040808320805482518185028101850190935280835284938493929190830182828015610c2e57602002820191906000526020600020905b815481526020019060010190808311610c1a575b5050505050905060005b8151811015610ce357610cc5610135838381518110610c5957610c59615911565b602002602001015181548110610c7157610c71615911565b6000918252602091829020604080516080810182526003909302909101805460ff811684526001600160f81b0361010090910416938301939093526001830154908201526002909101546060820152611f96565b610ccf908461593d565b925080610cdb81615955565b915050610c38565b50909392505050565b6097546001600160a01b0316336001600160a01b031614610d1f5760405162461bcd60e51b8152600401610ab890615970565b610d2881611fbe565b50565b606060678054610d3a906158d6565b80601f0160208091040260200160405190810160405280929190818152602001828054610d66906158d6565b8015610db35780601f10610d8857610100808354040283529160200191610db3565b820191906000526020600020905b815481529060010190602001808311610d9657829003601f168201915b50505050509050919050565b6000610dc961201f565b610dd4848484612049565b90505b9392505050565b6098546001600160a01b0316336001600160a01b031614610e415760405162461bcd60e51b815260206004820152601760248201527f70656e64696e6720676f7665726e616e6365206f6e6c790000000000000000006044820152606401610ab8565b609854610e56906001600160a01b03166124b7565b565b6001600160a01b03811660009081526101386020908152604091829020805483518184028101840190945280845260609392830182828015610db357602002820191906000526020600020905b815481526020019060010190808311610ea55750505050509050919050565b6000600261013b541415610eea5760405162461bcd60e51b8152600401610ab890615999565b600261013b55610ef861201f565b6000610f05868633612049565b9050610f12848433612505565b600161013b5595945050505050565b6001600160a01b038516331480610f3d5750610f3d8533610904565b610fa45760405162461bcd60e51b815260206004820152603260248201527f455243313135353a207472616e736665722063616c6c6572206973206e6f74206044820152711bdddb995c881b9bdc88185c1c1c9bdd995960721b6064820152608401610ab8565b610fb1858585858561272e565b5050505050565b610fc061201f565b6000610fcc8383610a50565b11610fe95760405162461bcd60e51b8152600401610ab8906159d0565b6001600160a01b0382166000908152610138602090815260408083208054825181850281018501909352808352919290919083018282801561104a57602002820191906000526020600020905b815481526020019060010190808311611036575b50505050509050600061105c826128db565b6040805160018082528183019092529192506000919060208083019080368337505060408051600180825281830190925292935060009291506020808301908036833701905050905085826000815181106110b9576110b9615911565b60200260200101906001600160a01b031690816001600160a01b03168152505084816000815181106110ed576110ed615911565b6020026020010181815250506111038282612b79565b61110d908461593d565b9250826101346000828254611122919061593d565b9091555050505050505050565b306001600160a01b037f00000000000000000000000000000000000000000000000000000000000000001614156111785760405162461bcd60e51b8152600401610ab8906159f0565b7f00000000000000000000000000000000000000000000000000000000000000006001600160a01b03166111aa612e04565b6001600160a01b0316146111d05760405162461bcd60e51b8152600401610ab890615a3c565b6111d981612e32565b60408051600080825260208201909252610d2891839190612e65565b6111fd61201f565b600061123b8383808060200260200160405190810160405280939291908181526020018383602002808284376000920191909152506128db92505050565b9050806101346000828254611250919061593d565b9091555050505050565b6097546001600160a01b0316336001600160a01b03161461128d5760405162461bcd60e51b8152600401610ab890615970565b610e56612fa9565b606081518351146112fa5760405162461bcd60e51b815260206004820152602960248201527f455243313135353a206163636f756e747320616e6420696473206c656e677468604482015268040dad2e6dac2e8c6d60bb1b6064820152608401610ab8565b600083516001600160401b03811115611315576113156151b7565b60405190808252806020026020018201604052801561133e578160200160208202803683370190505b50905060005b84518110156113b65761138985828151811061136257611362615911565b602002602001015185838151811061137c5761137c615911565b6020026020010151610a50565b82828151811061139b5761139b615911565b60209081029190910101526113af81615955565b9050611344565b509392505050565b306001600160a01b037f00000000000000000000000000000000000000000000000000000000000000001614156114075760405162461bcd60e51b8152600401610ab8906159f0565b7f00000000000000000000000000000000000000000000000000000000000000006001600160a01b0316611439612e04565b6001600160a01b03161461145f5760405162461bcd60e51b8152600401610ab890615a3c565b61146882612e32565b61147482826001612e65565b5050565b61148061201f565b60006114ef85858080602002602001604051908101604052809392919081815260200183836020028082843760009201919091525050604080516020808902828101820190935288825290935088925087918291850190849080828437600092019190915250612b7992505050565b9050806101346000828254611504919061593d565b90915550505050505050565b6097546001600160a01b0316336001600160a01b0316146115435760405162461bcd60e51b8152600401610ab890615970565b8061013a5414610d285761013a81905560405181907f755562ed366a717b0eb725893ab6581539ee371d492ffe52edb7ec5ae44a608990600090a250565b609954600160a01b900460ff16156115ab5760405162461bcd60e51b8152600401610ab890615a88565b6114748282613046565b6097546001600160a01b03166115ca816132cd565b610d2861333d565b6101355460009082101561165057600061013583815481106115f6576115f6615911565b6000918252602091829020604080516080810182526003909302909101805460ff811684526001600160f81b03610100909104169383019390935260018301549082015260029091015460608201529050610dd781611f96565b506000919050565b600261013b54141561167c5760405162461bcd60e51b8152600401610ab890615999565b600261013b5561168a61201f565b6000836001600160f81b031611806116a5575060008460ff16115b6116df5760405162461bcd60e51b815260206004820152600b60248201526a21706172616d657465727360a81b6044820152606401610ab8565b600061013586815481106116f5576116f5615911565b9060005260206000209060030201905060006117176117113390565b88610a50565b116117345760405162461bcd60e51b8152600401610ab8906159d0565b805460ff9081169086161561179557815461175390879060ff16615ab2565b9050603c60ff821611156117955760405162461bcd60e51b815260206004820152600960248201526810b23ab930ba34b7b760b91b6044820152606401610ab8565b81546001600160f81b036101009091048116908616156118d6576001600160f81b03861673ae1eaae3f627aaca434127644371b67b184440516001600160a01b03166370a08231336040516001600160e01b031960e084901b1681526001600160a01b03909116600482015260240160206040518083038186803b15801561181c57600080fd5b505afa158015611830573d6000803e3d6000fd5b505050506040513d601f19601f820116820180604052508101906118549190615ad7565b101561188d5760405162461bcd60e51b81526020600482015260086024820152672162616c616e636560c01b6044820152606401610ab8565b82546118a890879061010090046001600160f81b0316615af0565b905061013354816001600160f81b031610156118d65760405162461bcd60e51b8152600401610ab890615b1b565b82546000906118f79060ff81169061010090046001600160f81b0316615b3c565b61190460ff851684615b3c565b61190e9190615b6b565b6001600160f81b031661013454611925919061593d565b905061013a548111156119625760405162461bcd60e51b81526020600482015260056024820152641b1a5b5a5d60da1b6044820152606401610ab8565b61013654604051630ee2bb3160e01b8152600481018b90526001600160a01b0390911690630ee2bb3190602401600060405180830381600087803b1580156119a957600080fd5b505af11580156119bd573d6000803e3d6000fd5b5050505060ff8816156119d857835460ff191660ff84161784555b6001600160f81b03871615611a3457611a1d33306001600160f81b038a1673ae1eaae3f627aaca434127644371b67b184440515b6001600160a01b03169291906133a2565b835460ff166101006001600160f81b038416021784555b610134819055611a45868633612505565b816001600160f81b0316897fe3a10140e65b9801e670df76b379c31c901de51a39e9f8f80f412c28f701ff63858989604051611a8393929190615b93565b60405180910390a35050600161013b5550505050505050565b6097546001600160a01b0316336001600160a01b031614611acf5760405162461bcd60e51b8152600401610ab890615970565b610d288161340d565b6101308054610b4a906158d6565b609954600160a01b900460ff1615611b105760405162461bcd60e51b8152600401610ab890615a88565b610d2881613451565b611474338383613766565b609954600090600160a01b900460ff1615611b515760405162461bcd60e51b8152600401610ab890615a88565b610dd7838333612049565b6097546001600160a01b0316336001600160a01b031614611b8f5760405162461bcd60e51b8152600401610ab890615970565b6001600160a01b038116611bb55760405162461bcd60e51b8152600401610ab890615bec565b6097546001600160a01b0382811691161415611c0c5760405162461bcd60e51b8152602060048201526016602482015275616c72656164792074686520676f7665726e616e636560501b6044820152606401610ab8565b609880546001600160a01b0319166001600160a01b0383169081179091556040519081527f9a35a2aeba8eb8a43609155078e2fd5cbafd797e0a76ec701999554effda58e4906020015b60405180910390a150565b6000600261013b541415611c875760405162461bcd60e51b8152600401610ab890615999565b600261013b55611c9561201f565b6000611ca2878787612049565b9050611caf848487612505565b600161013b559695505050505050565b6101358181548110611cd057600080fd5b600091825260209091206003909102018054600182015460029092015460ff821693506101009091046001600160f81b0316919084565b6101318054610b4a906158d6565b6097546001600160a01b0316336001600160a01b031614611d485760405162461bcd60e51b8152600401610ab890615970565b61013355565b6001600160a01b038516331480611d6a5750611d6a8533610904565b611dc85760405162461bcd60e51b815260206004820152602960248201527f455243313135353a2063616c6c6572206973206e6f74206f776e6572206e6f7260448201526808185c1c1c9bdd995960ba1b6064820152608401610ab8565b610fb18585858585613847565b600054610100900460ff16611df05760005460ff1615611df4565b303b155b611e575760405162461bcd60e51b815260206004820152602e60248201527f496e697469616c697a61626c653a20636f6e747261637420697320616c72656160448201526d191e481a5b9a5d1a585b1a5e995960921b6064820152608401610ab8565b600054610100900460ff16158015611e79576000805461ffff19166101011790555b611e81613977565b611e928a8a8a8a8a8a8a8a8a6139a6565b8015611ea4576000805461ff00191690555b50505050505050505050565b600261013b541415611ed45760405162461bcd60e51b8152600401610ab890615999565b600261013b55611ee261201f565b611eeb83613451565b611ef6828233612505565b5050600161013b5550565b6097546001600160a01b0316336001600160a01b031614611f345760405162461bcd60e51b8152600401610ab890615970565b610d28816139f9565b600261013b541415611f615760405162461bcd60e51b8152600401610ab890615999565b600261013b55611f6f61201f565b611f798484613046565b611f84828233612505565b5050600161013b555050565b3b151590565b6000816000015160ff168260200151611faf9190615b3c565b6001600160f81b031692915050565b610137546001600160a01b03828116911614610d285761013780546001600160a01b0319166001600160a01b0383169081179091556040517f902054a0679f0dccfd7789d7c0c560ee23e8a31b430ddd0a802c5c6b774682ef90600090a250565b609954600160a01b900460ff1615610e565760405162461bcd60e51b8152600401610ab890615a88565b600061013354846001600160f81b0316116120765760405162461bcd60e51b8152600401610ab890615b1b565b60008360ff1611801561208d5750603c60ff841611155b6120c75760405162461bcd60e51b815260206004820152600b60248201526a085b1bd8dad4195c9a5bd960aa1b6044820152606401610ab8565b6001600160f81b03841673ae1eaae3f627aaca434127644371b67b184440516001600160a01b03166370a08231336040516001600160e01b031960e084901b1681526001600160a01b03909116600482015260240160206040518083038186803b15801561213457600080fd5b505afa158015612148573d6000803e3d6000fd5b505050506040513d601f19601f8201168201806040525081019061216c9190615ad7565b10156121a55760405162461bcd60e51b81526020600482015260086024820152672162616c616e636560c01b6044820152606401610ab8565b61013a546121b660ff851686615b3c565b6001600160f81b0316610134546121cd919061593d565b111561220b5760405162461bcd60e51b815260206004820152600d60248201526c1b1a5b5a5d081c995858da1959609a1b6044820152606401610ab8565b610137546001600160a01b0316156122d75761013754604051631709ef0760e01b81526001600160a01b03848116600483015230602483015290911690631709ef079060440160206040518083038186803b15801561226957600080fd5b505afa15801561227d573d6000803e3d6000fd5b505050506040513d601f19601f820116820180604052508101906122a19190615c15565b6122d75760405162461bcd60e51b81526020600482015260076024820152662161636365737360c81b6044820152606401610ab8565b6101355461013654604051630ee2bb3160e01b8152600481018390526001600160a01b0390911690630ee2bb3190602401600060405180830381600087803b15801561232257600080fd5b505af1158015612336573d6000803e3d6000fd5b50505050600060405180608001604052808660ff168152602001876001600160f81b031681526020016123664290565b81526020014290526101358054600181018255600091909152815160208301516001600160f81b03166101000260ff9091161760039091027fdf37d27e88e3bd0b85262482997e409a463f5be0ebb19232abf994dd8474090d81019190915560408201517fdf37d27e88e3bd0b85262482997e409a463f5be0ebb19232abf994dd8474090e82015560608201517fdf37d27e88e3bd0b85262482997e409a463f5be0ebb19232abf994dd8474090f9091015590506124496124243390565b306001600160f81b03891673ae1eaae3f627aaca434127644371b67b18444051611a0c565b60606124588584600184613aeb565b6001600160f81b038716836001600160a01b0387167f9dda60d7e9f9af0bf992678586e599f0964aea9345529f373a73723cdae2baa189426040805160ff909316835260208301919091520160405180910390a4509095945050505050565b609780546001600160a01b0319166001600160a01b0383169081179091556040519081527f82d3cb1aac85eaba89545486a5bdf332a6649ee2e53bccf1e2aec0683afced0e90602001611c56565b60005b828110156127285761255163bf8b4f0760e01b85858481811061252d5761252d615911565b90506020020160208101906125429190615038565b6001600160a01b031690613bee565b6125905760405162461bcd60e51b815260206004820152601060248201526f217661756c7420696e7465726661636560801b6044820152606401610ab8565b60008484838181106125a4576125a4615911565b90506020020160208101906125b99190615038565b6040516370a0823160e01b81526001600160a01b03858116600483015291909116906370a082319060240160206040518083038186803b1580156125fc57600080fd5b505afa158015612610573d6000803e3d6000fd5b505050506040513d601f19601f820116820180604052508101906126349190615ad7565b11156127165760408051600180825281830190925260009160208083019080368337019050509050828160008151811061267057612670615911565b60200260200101906001600160a01b031690816001600160a01b0316815250508484838181106126a2576126a2615911565b90506020020160208101906126b79190615038565b6001600160a01b031663deabb800826040518263ffffffff1660e01b81526004016126e29190615c6b565b600060405180830381600087803b1580156126fc57600080fd5b505af1158015612710573d6000803e3d6000fd5b50505050505b8061272081615955565b915050612508565b50505050565b815183511461274f5760405162461bcd60e51b8152600401610ab890615c7e565b6001600160a01b0384166127755760405162461bcd60e51b8152600401610ab890615cc6565b33612784818787878787613c0a565b60005b845181101561286d5760008582815181106127a4576127a4615911565b6020026020010151905060008583815181106127c2576127c2615911565b60209081029190910181015160008481526065835260408082206001600160a01b038e1683529093529190912054909150818110156128135760405162461bcd60e51b8152600401610ab890615d0b565b60008381526065602090815260408083206001600160a01b038e8116855292528083208585039055908b1682528120805484929061285290849061593d565b925050819055505050508061286690615955565b9050612787565b50846001600160a01b0316866001600160a01b0316826001600160a01b03167f4a39dc06d4c0dbc64b70af90fd698a233a518aa5d07e595d983b8c0526c8f7fb87876040516128bd929190615d55565b60405180910390a46128d3818787878787613e1c565b505050505050565b61013654604051635c9e74d960e01b815260009182916001600160a01b0390911690635c9e74d9906129119086906004016150f9565b600060405180830381600087803b15801561292b57600080fd5b505af115801561293f573d6000803e3d6000fd5b505050506040513d6000823e601f3d908101601f191682016040526129679190810190615d7a565b915060009050805b84518110156113b657600083828151811061298c5761298c615911565b60200260200101516101358784815181106129a9576129a9615911565b6020026020010151815481106129c1576129c1615911565b60009182526020909120600390910201546129ea919061010090046001600160f81b031661593d565b905080610135878481518110612a0257612a02615911565b602002602001015181548110612a1a57612a1a615911565b906000526020600020906003020160000160016101000a8154816001600160f81b0302191690836001600160f81b03160217905550610135868381518110612a6457612a64615911565b602002602001015181548110612a7c57612a7c615911565b6000918252602090912060039091020154845160ff90911690859084908110612aa757612aa7615911565b6020026020010151612ab99190615e21565b612ac3908461593d565b92506060816001600160f81b0316878481518110612ae357612ae3615911565b60200260200101517fe3a10140e65b9801e670df76b379c31c901de51a39e9f8f80f412c28f701ff636101358a8781518110612b2157612b21615911565b602002602001015181548110612b3957612b39615911565b6000918252602090912060039091020154604051612b5c9160ff16908690615e40565b60405180910390a350508080612b7190615955565b91505061296f565b610136546040516352b741bb60e01b815260009182916001600160a01b03909116906352b741bb90612baf908790600401615c6b565b600060405180830381600087803b158015612bc957600080fd5b505af1158015612bdd573d6000803e3d6000fd5b505050506040513d6000823e601f3d908101601f19168201604052612c059190810190615d7a565b915060009050805b8451811015612dfb576000858281518110612c2a57612c2a615911565b602002602001015190506000848381518110612c4857612c48615911565b60200260200101516101358381548110612c6457612c64615911565b6000918252602090912060039091020154612c8d919061010090046001600160f81b031661593d565b90506000612cb4898581518110612ca657612ca6615911565b602002602001015184610a50565b11612cd15760405162461bcd60e51b8152600401610ab8906159d0565b806101358381548110612ce657612ce6615911565b906000526020600020906003020160000160016101000a8154816001600160f81b0302191690836001600160f81b031602179055506101358281548110612d2f57612d2f615911565b6000918252602090912060039091020154855160ff90911690869085908110612d5a57612d5a615911565b6020026020010151612d6c9190615e21565b612d76908561593d565b93506060816001600160f81b0316837fe3a10140e65b9801e670df76b379c31c901de51a39e9f8f80f412c28f701ff636101358681548110612dba57612dba615911565b6000918252602090912060039091020154604051612ddd9160ff16908690615e40565b60405180910390a35050508080612df390615955565b915050612c0d565b50949350505050565b7f360894a13ba1a3210667c828492db98dca3e2076cc3735a920a3ca505d382bbc546001600160a01b031690565b6097546001600160a01b0316336001600160a01b031614610d285760405162461bcd60e51b8152600401610ab890615970565b6000612e6f612e04565b9050612e7a84613f87565b600083511180612e875750815b15612e9857612e96848461402c565b505b7f4910fdfa16fed3260ed0e7147f7cc6da11a60208b5b9406d12a635614ffd9143805460ff16610fb157805460ff191660011781556040516001600160a01b0383166024820152612f1790869060440160408051601f198184030181529190526020810180516001600160e01b0316631b2ce7f360e11b17905261402c565b50805460ff19168155612f28612e04565b6001600160a01b0316826001600160a01b031614612fa05760405162461bcd60e51b815260206004820152602f60248201527f45524331393637557067726164653a207570677261646520627265616b73206660448201526e75727468657220757067726164657360881b6064820152608401610ab8565b610fb185614117565b609954600160a01b900460ff16612ff95760405162461bcd60e51b815260206004820152601460248201527314185d5cd8589b194e881b9bdd081c185d5cd95960621b6044820152606401610ab8565b6099805460ff60a01b191690557f5db9ee0a495bf2e6ff9c91a7834c1ba4fdd244a5e8aa4e537bd38aeae4b073aa335b6040516001600160a01b03909116815260200160405180910390a1565b6001600160a01b03811661306c5760405162461bcd60e51b8152600401610ab890615e5c565b60006130783384610a50565b116130ae5760405162461bcd60e51b8152602060048201526006602482015265217374616b6560d01b6044820152606401610ab8565b600061013583815481106130c4576130c4615911565b600091825260209182902060408051608081018252600393909302909101805460ff81168085526101009091046001600160f81b031694840185905260018201549284018390526002909101546060840152919350919061312484614157565b6131595760405162461bcd60e51b81526020600482015260066024820152651b1bd8dad95960d21b6044820152606401610ab8565b60408051600180825281830190925260009160208083019080368337019050509050868160008151811061318f5761318f615911565b602090810291909101015261013654604051635c9e74d960e01b81526000916001600160a01b031690635c9e74d9906131cc9085906004016150f9565b600060405180830381600087803b1580156131e657600080fd5b505af11580156131fa573d6000803e3d6000fd5b505050506040513d6000823e601f3d908101601f191682016040526132229190810190615d7a565b50905061323133896001614184565b61326e87613248836001600160f81b03881661593d565b73ae1eaae3f627aaca434127644371b67b184440515b6001600160a01b03169190614289565b6001600160f81b03841688336040805160ff88168152602081018a90526001600160a01b0392909216917f6e767f2d8b01315045331a1d7e89c86915166230a0e38f0715c9e3569a3a5cab910160405180910390a45050505050505050565b336001600160a01b038216148061330357506099546001600160a01b03161580159061330357506099546001600160a01b031633145b610d285760405162461bcd60e51b815260206004820152600b60248201526a08585d5d1a1bdc9a5cd95960aa1b6044820152606401610ab8565b609954600160a01b900460ff16156133675760405162461bcd60e51b8152600401610ab890615a88565b6099805460ff60a01b1916600160a01b1790557f62e78cea01bee320cd4e420270b5ea74000d11b0c9f74754ebdbfc544b05a2586130293390565b6040516001600160a01b03808516602483015283166044820152606481018290526127289085906323b872dd60e01b906084015b60408051601f198184030181529190526020810180516001600160e01b03166001600160e01b0319909316929092179091526142be565b805161342190610131906020840190614ea2565b507f102a0d6da3e12328128682f99229d790c4006365d29d6e6be1d5dd28f6e5cdaf81604051611c569190615025565b6001600160a01b0381166134775760405162461bcd60e51b8152600401610ab890615e5c565b33600090815261013860209081526040808320805482518185028101850190935280835291929091908301828280156134cf57602002820191906000526020600020905b8154815260200190600101908083116134bb575b5050505050905060006134e182614390565b905060008151116135205760405162461bcd60e51b8152602060048201526009602482015268085d5b9b1bd8dad95960ba1b6044820152606401610ab8565b61013654604051635c9e74d960e01b81526000916001600160a01b031690635c9e74d9906135529085906004016150f9565b600060405180830381600087803b15801561356c57600080fd5b505af1158015613580573d6000803e3d6000fd5b505050506040513d6000823e601f3d908101601f191682016040526135a89190810190615d7a565b509050600082516001600160401b038111156135c6576135c66151b7565b6040519080825280602002602001820160405280156135ef578160200160208202803683370190505b50905060005b835181101561373b57600182828151811061361257613612615911565b602002602001018181525050600061013585838151811061363557613635615911565b60200260200101518154811061364d5761364d615911565b600091825260209182902060408051608081018252600393909302909101805460ff81168085526101009091046001600160f81b03169484018590526001820154928401839052600290910154606084015291935091906136ae828861593d565b9650816001600160f81b03168886815181106136cc576136cc615911565b60200260200101516136db3390565b6040805160ff86168152602081018890526001600160a01b0392909216917f6e767f2d8b01315045331a1d7e89c86915166230a0e38f0715c9e3569a3a5cab910160405180910390a450505050808061373390615955565b9150506135f5565b50613747338483614575565b610fb1858373ae1eaae3f627aaca434127644371b67b1844405161325e565b816001600160a01b0316836001600160a01b031614156137da5760405162461bcd60e51b815260206004820152602960248201527f455243313135353a2073657474696e6720617070726f76616c20737461747573604482015268103337b91039b2b63360b91b6064820152608401610ab8565b6001600160a01b03838116600081815260666020908152604080832094871680845294825291829020805460ff191686151590811790915591519182527f17307eab39ab6107e8899845ad3d59bd9653f200f220920489ca2b5937696c31910160405180910390a3505050565b6001600160a01b03841661386d5760405162461bcd60e51b8152600401610ab890615cc6565b3361388c81878761387d88614706565b61388688614706565b87613c0a565b60008481526065602090815260408083206001600160a01b038a168452909152902054838110156138cf5760405162461bcd60e51b8152600401610ab890615d0b565b60008581526065602090815260408083206001600160a01b038b811685529252808320878503905590881682528120805486929061390e90849061593d565b909155505060408051868152602081018690526001600160a01b03808916928a821692918616917fc3d58168c5ae7397731d063d5bbf3d657854427343f4c083240f7aacaa2d0f62910160405180910390a461396e828888888888614751565b50505050505050565b600054610100900460ff1661399e5760405162461bcd60e51b8152600401610ab890615e7c565b610e5661481b565b600054610100900460ff166139cd5760405162461bcd60e51b8152600401610ab890615e7c565b6139d68461484a565b6139e0878761488a565b6139ee8989878686866148db565b505050505050505050565b6001600160a01b038116613a465760405162461bcd60e51b81526020600482015260146024820152731859191c995cdcc81a5cc81b9bdd081d985b1a5960621b6044820152606401610ab8565b6099546001600160a01b0382811691161415613a9d5760405162461bcd60e51b815260206004820152601660248201527530b63932b0b23c903a34329033b0ba32b5b2b2b832b960511b6044820152606401610ab8565b609980546001600160a01b0319166001600160a01b0383169081179091556040519081527f2ae33fe0c6f544449738f838b5b9f63f9487de59447d108fcaf7aa24c06048ef90602001611c56565b6001600160a01b038416613b4b5760405162461bcd60e51b815260206004820152602160248201527f455243313135353a206d696e7420746f20746865207a65726f206164647265736044820152607360f81b6064820152608401610ab8565b33613b5c8160008761387d88614706565b60008481526065602090815260408083206001600160a01b038916845290915281208054859290613b8e90849061593d565b909155505060408051858152602081018590526001600160a01b0380881692600092918516917fc3d58168c5ae7397731d063d5bbf3d657854427343f4c083240f7aacaa2d0f62910160405180910390a4610fb181600087878787614751565b6000613bf9836149c3565b8015610dd75750610dd783836149f6565b60005b835181101561396e576000848281518110613c2a57613c2a615911565b602002602001015190506000848381518110613c4857613c48615911565b6020026020010151905060008111613c725760405162461bcd60e51b8152600401610ab890615b1b565b60006101358381548110613c8857613c88615911565b90600052602060002090600302019050613c9f4290565b6002820181905560408051608081018252835460ff8116825261010090046001600160f81b031660208201526001840154918101919091526060810191909152600090613ceb90611f96565b90506001600160a01b038a1615613d7b576000613d088b86610a50565b11613d405760405162461bcd60e51b815260206004820152600860248201526708585b1b1bddd95960c21b6044820152606401610ab8565b806101346000828254613d539190615ec7565b90915550506001600160a01b038a16600090815261013860205260409020613d7b9085614adf565b6001600160a01b03891615613dd357806101346000828254613d9d919061593d565b90915550506001600160a01b03891660009081526101386020908152604082208054600181018255908352912001849055613e05565b6101358481548110613de757613de7615911565b60009182526020822060039091020181815560018101829055600201555b505050508080613e1490615955565b915050613c0d565b6001600160a01b0384163b156128d35760405163bc197c8160e01b81526001600160a01b0385169063bc197c8190613e609089908990889088908890600401615ede565b602060405180830381600087803b158015613e7a57600080fd5b505af1925050508015613eaa575060408051601f3d908101601f19168201909252613ea791810190615f3c565b60015b613f5757613eb6615f59565b806308c379a01415613ef05750613ecb615f75565b80613ed65750613ef2565b8060405162461bcd60e51b8152600401610ab89190615025565b505b60405162461bcd60e51b815260206004820152603460248201527f455243313135353a207472616e7366657220746f206e6f6e20455243313135356044820152732932b1b2b4bb32b91034b6b83632b6b2b73a32b960611b6064820152608401610ab8565b6001600160e01b0319811663bc197c8160e01b1461396e5760405162461bcd60e51b8152600401610ab890615ffe565b803b613feb5760405162461bcd60e51b815260206004820152602d60248201527f455243313936373a206e657720696d706c656d656e746174696f6e206973206e60448201526c1bdd08184818dbdb9d1c9858dd609a1b6064820152608401610ab8565b7f360894a13ba1a3210667c828492db98dca3e2076cc3735a920a3ca505d382bbc80546001600160a01b0319166001600160a01b0392909216919091179055565b6060823b61408b5760405162461bcd60e51b815260206004820152602660248201527f416464726573733a2064656c65676174652063616c6c20746f206e6f6e2d636f6044820152651b9d1c9858dd60d21b6064820152608401610ab8565b600080846001600160a01b0316846040516140a69190616046565b600060405180830381855af49150503d80600081146140e1576040519150601f19603f3d011682016040523d82523d6000602084013e6140e6565b606091505b509150915061410e828260405180606001604052806027815260200161613a60279139614bc8565b95945050505050565b61412081613f87565b6040516001600160a01b038216907fbc7cd75a20ee27fd9adebab32041f755214dbc6bffa90cc0225b39da2e5c2d3b90600090a250565b805160009061416d906228206f9060ff16615e21565b826040015161417c919061593d565b421192915050565b6001600160a01b0383166141aa5760405162461bcd60e51b8152600401610ab890616062565b336141d9818560006141bb87614706565b6141c487614706565b60405180602001604052806000815250613c0a565b60008381526065602090815260408083206001600160a01b03881684529091529020548281101561421c5760405162461bcd60e51b8152600401610ab8906160a5565b60008481526065602090815260408083206001600160a01b03898116808652918452828520888703905582518981529384018890529092908616917fc3d58168c5ae7397731d063d5bbf3d657854427343f4c083240f7aacaa2d0f62910160405180910390a45050505050565b6040516001600160a01b0383166024820152604481018290526142b990849063a9059cbb60e01b906064016133d6565b505050565b6000614313826040518060400160405280602081526020017f5361666545524332303a206c6f772d6c6576656c2063616c6c206661696c6564815250856001600160a01b0316614c019092919063ffffffff16565b8051909150156142b957808060200190518101906143319190615c15565b6142b95760405162461bcd60e51b815260206004820152602a60248201527f5361666545524332303a204552433230206f7065726174696f6e20646964206e6044820152691bdd081cdd58d8d9595960b21b6064820152608401610ab8565b6060600082516001600160401b038111156143ad576143ad6151b7565b6040519080825280602002602001820160405280156143d6578160200160208202803683370190505b5090506000805b84518110156144cc5760006101358683815181106143fd576143fd615911565b60200260200101518154811061441557614415615911565b6000918252602091829020604080516080810182526003909302909101805460ff811684526001600160f81b0361010090910416938301939093526001830154908201526002909101546060820152905061446f81614157565b156144b95785828151811061448657614486615911565b60200260200101518484815181106144a0576144a0615911565b6020908102919091010152826144b581615955565b9350505b50806144c481615955565b9150506143dd565b506060811561456d57816001600160401b038111156144ed576144ed6151b7565b604051908082528060200260200182016040528015614516578160200160208202803683370190505b50905060005b82811015612dfb5783818151811061453657614536615911565b602002602001015182828151811061455057614550615911565b60209081029190910101528061456581615955565b91505061451c565b949350505050565b6001600160a01b03831661459b5760405162461bcd60e51b8152600401610ab890616062565b80518251146145bc5760405162461bcd60e51b8152600401610ab890615c7e565b60003390506145df81856000868660405180602001604052806000815250613c0a565b60005b83518110156146a75760008482815181106145ff576145ff615911565b60200260200101519050600084838151811061461d5761461d615911565b60209081029190910181015160008481526065835260408082206001600160a01b038c16835290935291909120549091508181101561466e5760405162461bcd60e51b8152600401610ab8906160a5565b60009283526065602090815260408085206001600160a01b038b168652909152909220910390558061469f81615955565b9150506145e2565b5060006001600160a01b0316846001600160a01b0316826001600160a01b03167f4a39dc06d4c0dbc64b70af90fd698a233a518aa5d07e595d983b8c0526c8f7fb86866040516146f8929190615d55565b60405180910390a450505050565b6040805160018082528183019092526060916000919060208083019080368337019050509050828160008151811061474057614740615911565b602090810291909101015292915050565b6001600160a01b0384163b156128d35760405163f23a6e6160e01b81526001600160a01b0385169063f23a6e619061479590899089908890889088906004016160e9565b602060405180830381600087803b1580156147af57600080fd5b505af19250505080156147df575060408051601f3d908101601f191682019092526147dc91810190615f3c565b60015b6147eb57613eb6615f59565b6001600160e01b0319811663f23a6e6160e01b1461396e5760405162461bcd60e51b8152600401610ab890615ffe565b600054610100900460ff166148425760405162461bcd60e51b8152600401610ab890615e7c565b600161013b55565b600054610100900460ff166148715760405162461bcd60e51b8152600401610ab890615e7c565b614879614c10565b614881614c10565b610d2881614c37565b600054610100900460ff166148b15760405162461bcd60e51b8152600401610ab890615e7c565b6148ba82614c67565b6148c381614c78565b6148cb614ca1565b6148d3614cd7565b611474614c10565b600054610100900460ff166149025760405162461bcd60e51b8152600401610ab890615e7c565b6001600160a01b0384166149285760405162461bcd60e51b8152600401610ab890615e5c565b6001600160a01b03821661494e5760405162461bcd60e51b8152600401610ab890615e5c565b85516149629061012f906020890190614ea2565b50845161497790610130906020880190614ea2565b5061013680546001600160a01b038087166001600160a01b03199283161790925561013280549285169290911691909117905560001961013a556149ba8361340d565b6128d381611fbe565b60006149d6826301ffc9a760e01b6149f6565b8015610ae657506149ef826001600160e01b03196149f6565b1592915050565b604080516001600160e01b0319831660248083019190915282518083039091018152604490910182526020810180516001600160e01b03166301ffc9a760e01b179052905160009190829081906001600160a01b0387169061753090614a5d908690616046565b6000604051808303818686fa925050503d8060008114614a99576040519150601f19603f3d011682016040523d82523d6000602084013e614a9e565b606091505b5091509150602081511015614ab95760009350505050610ae6565b818015614ad5575080806020019051810190614ad59190615c15565b9695505050505050565b6000805b8354821015614b2a5782848381548110614aff57614aff615911565b90600052602060002001541415614b1857506001614b2a565b81614b2281615955565b925050614ae3565b8354614b3890600190615ec7565b821015614b965783614b4b83600161593d565b81548110614b5b57614b5b615911565b9060005260206000200154848381548110614b7857614b78615911565b60009182526020909120015581614b8e81615955565b925050614b2a565b80156127285783805480614bac57614bac616123565b6001900381819060005260206000200160009055905550505050565b60608315614bd7575081610dd7565b825115614be75782518084602001fd5b8160405162461bcd60e51b8152600401610ab89190615025565b6060610dd48484600085614d0e565b600054610100900460ff16610e565760405162461bcd60e51b8152600401610ab890615e7c565b600054610100900460ff16614c5e5760405162461bcd60e51b8152600401610ab890615e7c565b610d2881614e36565b614c6f614e49565b610d2881614e70565b336001600160a01b0382161415611f345760405162461bcd60e51b8152600401610ab890615bec565b600054610100900460ff16614cc85760405162461bcd60e51b8152600401610ab890615e7c565b6099805460ff60a01b19169055565b600054610100900460ff16614cfe5760405162461bcd60e51b8152600401610ab890615e7c565b614d06614c10565b610e56614c10565b606082471015614d6f5760405162461bcd60e51b815260206004820152602660248201527f416464726573733a20696e73756666696369656e742062616c616e636520666f6044820152651c8818d85b1b60d21b6064820152608401610ab8565b843b614dbd5760405162461bcd60e51b815260206004820152601d60248201527f416464726573733a2063616c6c20746f206e6f6e2d636f6e74726163740000006044820152606401610ab8565b600080866001600160a01b03168587604051614dd99190616046565b60006040518083038185875af1925050503d8060008114614e16576040519150601f19603f3d011682016040523d82523d6000602084013e614e1b565b606091505b5091509150614e2b828286614bc8565b979650505050505050565b8051611474906067906020840190614ea2565b600054610100900460ff16614d065760405162461bcd60e51b8152600401610ab890615e7c565b336001600160a01b0382161415614e995760405162461bcd60e51b8152600401610ab890615bec565b610d28816124b7565b828054614eae906158d6565b90600052602060002090601f016020900481019282614ed05760008555614f16565b82601f10614ee957805160ff1916838001178555614f16565b82800160010185558215614f16579182015b82811115614f16578251825591602001919060010190614efb565b50614f22929150614f26565b5090565b5b80821115614f225760008155600101614f27565b80356001600160a01b0381168114614f5257600080fd5b919050565b60008060408385031215614f6a57600080fd5b614f7383614f3b565b946020939093013593505050565b6001600160e01b031981168114610d2857600080fd5b600060208284031215614fa957600080fd5b8135610dd781614f81565b600060208284031215614fc657600080fd5b5035919050565b60005b83811015614fe8578181015183820152602001614fd0565b838111156127285750506000910152565b60008151808452615011816020860160208601614fcd565b601f01601f19169290920160200192915050565b602081526000610dd76020830184614ff9565b60006020828403121561504a57600080fd5b610dd782614f3b565b80356001600160f81b0381168114614f5257600080fd5b803560ff81168114614f5257600080fd5b60008060006060848603121561509057600080fd5b61509984615053565b92506150a76020850161506a565b91506150b560408501614f3b565b90509250925092565b600081518084526020808501945080840160005b838110156150ee578151875295820195908201906001016150d2565b509495945050505050565b602081526000610dd760208301846150be565b60008083601f84011261511e57600080fd5b5081356001600160401b0381111561513557600080fd5b6020830191508360208260051b850101111561515057600080fd5b9250929050565b6000806000806060858703121561516d57600080fd5b61517685615053565b93506151846020860161506a565b925060408501356001600160401b0381111561519f57600080fd5b6151ab8782880161510c565b95989497509550505050565b634e487b7160e01b600052604160045260246000fd5b601f8201601f191681016001600160401b03811182821017156151f2576151f26151b7565b6040525050565b60006001600160401b03821115615212576152126151b7565b5060051b60200190565b600082601f83011261522d57600080fd5b8135602061523a826151f9565b60405161524782826151cd565b83815260059390931b850182019282810191508684111561526757600080fd5b8286015b84811015615282578035835291830191830161526b565b509695505050505050565b600082601f83011261529e57600080fd5b81356001600160401b038111156152b7576152b76151b7565b6040516152ce601f8301601f1916602001826151cd565b8181528460208386010111156152e357600080fd5b816020850160208301376000918101602001919091529392505050565b600080600080600060a0868803121561531857600080fd5b61532186614f3b565b945061532f60208701614f3b565b935060408601356001600160401b038082111561534b57600080fd5b61535789838a0161521c565b9450606088013591508082111561536d57600080fd5b61537989838a0161521c565b9350608088013591508082111561538f57600080fd5b5061539c8882890161528d565b9150509295509295909350565b600080602083850312156153bc57600080fd5b82356001600160401b038111156153d257600080fd5b6153de8582860161510c565b90969095509350505050565b600080604083850312156153fd57600080fd5b82356001600160401b038082111561541457600080fd5b818501915085601f83011261542857600080fd5b81356020615435826151f9565b60405161544282826151cd565b83815260059390931b850182019282810191508984111561546257600080fd5b948201945b838610156154875761547886614f3b565b82529482019490820190615467565b9650508601359250508082111561549d57600080fd5b506154aa8582860161521c565b9150509250929050565b600080604083850312156154c757600080fd5b6154d083614f3b565b915060208301356001600160401b038111156154eb57600080fd5b6154aa8582860161528d565b6000806000806040858703121561550d57600080fd5b84356001600160401b038082111561552457600080fd5b6155308883890161510c565b9096509450602087013591508082111561554957600080fd5b506151ab8782880161510c565b6000806040838503121561556957600080fd5b8235915061557960208401614f3b565b90509250929050565b60008060008060006080868803121561559a57600080fd5b853594506155aa6020870161506a565b93506155b860408701615053565b925060608601356001600160401b038111156155d357600080fd5b6155df8882890161510c565b969995985093965092949392505050565b60006020828403121561560257600080fd5b81356001600160401b0381111561561857600080fd5b61456d8482850161528d565b8015158114610d2857600080fd5b6000806040838503121561564557600080fd5b61564e83614f3b565b9150602083013561565e81615624565b809150509250929050565b6000806040838503121561567c57600080fd5b61568583615053565b91506155796020840161506a565b6000806000806000608086880312156156ab57600080fd5b6156b486615053565b94506156c26020870161506a565b93506155b860408701614f3b565b600080604083850312156156e357600080fd5b6156ec83614f3b565b915061557960208401614f3b565b600080600080600060a0868803121561571257600080fd5b61571b86614f3b565b945061572960208701614f3b565b9350604086013592506060860135915060808601356001600160401b0381111561575257600080fd5b61539c8882890161528d565b60008060008060008060008060006101208a8c03121561577d57600080fd5b89356001600160401b038082111561579457600080fd5b6157a08d838e0161528d565b9a5060208c01359150808211156157b657600080fd5b6157c28d838e0161528d565b99506157d060408d01614f3b565b98506157de60608d01614f3b565b97506157ec60808d01614f3b565b965060a08c013591508082111561580257600080fd5b61580e8d838e0161528d565b955060c08c013591508082111561582457600080fd5b506158318c828d0161528d565b93505061584060e08b01614f3b565b915061584f6101008b01614f3b565b90509295985092959850929598565b60008060006040848603121561587357600080fd5b61587c84614f3b565b925060208401356001600160401b0381111561589757600080fd5b6158a38682870161510c565b9497909650939450505050565b600080600080606085870312156158c657600080fd5b8435935061518460208601614f3b565b600181811c908216806158ea57607f821691505b6020821081141561590b57634e487b7160e01b600052602260045260246000fd5b50919050565b634e487b7160e01b600052603260045260246000fd5b634e487b7160e01b600052601160045260246000fd5b6000821982111561595057615950615927565b500190565b600060001982141561596957615969615927565b5060010190565b6020808252600f908201526e676f7665726e616e6365206f6e6c7960881b604082015260600190565b6020808252601f908201527f5265656e7472616e637947756172643a207265656e7472616e742063616c6c00604082015260600190565b60208082526006908201526510b7bbb732b960d11b604082015260600190565b6020808252602c908201527f46756e6374696f6e206d7573742062652063616c6c6564207468726f7567682060408201526b19195b1959d85d1958d85b1b60a21b606082015260800190565b6020808252602c908201527f46756e6374696f6e206d7573742062652063616c6c6564207468726f7567682060408201526b6163746976652070726f787960a01b606082015260800190565b60208082526010908201526f14185d5cd8589b194e881c185d5cd95960821b604082015260600190565b600060ff821660ff84168060ff03821115615acf57615acf615927565b019392505050565b600060208284031215615ae957600080fd5b5051919050565b60006001600160f81b03828116848216808303821115615b1257615b12615927565b01949350505050565b60208082526007908201526608585b5bdd5b9d60ca1b604082015260600190565b60006001600160f81b0382811684821681151582840482111615615b6257615b62615927565b02949350505050565b60006001600160f81b0383811690831681811015615b8b57615b8b615927565b039392505050565b60ff8416815260406020808301829052908201839052600090849060608401835b86811015615be0576001600160a01b03615bcd85614f3b565b1682529282019290820190600101615bb4565b50979650505050505050565b6020808252600f908201526e696e76616c6964206164647265737360881b604082015260600190565b600060208284031215615c2757600080fd5b8151610dd781615624565b600081518084526020808501945080840160005b838110156150ee5781516001600160a01b031687529582019590820190600101615c46565b602081526000610dd76020830184615c32565b60208082526028908201527f455243313135353a2069647320616e6420616d6f756e7473206c656e677468206040820152670dad2e6dac2e8c6d60c31b606082015260800190565b60208082526025908201527f455243313135353a207472616e7366657220746f20746865207a65726f206164604082015264647265737360d81b606082015260800190565b6020808252602a908201527f455243313135353a20696e73756666696369656e742062616c616e636520666f60408201526939103a3930b739b332b960b11b606082015260800190565b604081526000615d6860408301856150be565b828103602084015261410e81856150be565b60008060408385031215615d8d57600080fd5b825191506020808401516001600160401b03811115615dab57600080fd5b8401601f81018613615dbc57600080fd5b8051615dc7816151f9565b604051615dd482826151cd565b82815260059290921b8301840191848101915088831115615df457600080fd5b928401925b82841015615e1257835182529284019290840190615df9565b80955050505050509250929050565b6000816000190483118215151615615e3b57615e3b615927565b500290565b60ff83168152604060208201526000610dd46040830184615c32565b602080825260069082015265085a5b9c1d5d60d21b604082015260600190565b6020808252602b908201527f496e697469616c697a61626c653a20636f6e7472616374206973206e6f74206960408201526a6e697469616c697a696e6760a81b606082015260800190565b600082821015615ed957615ed9615927565b500390565b6001600160a01b0386811682528516602082015260a060408201819052600090615f0a908301866150be565b8281036060840152615f1c81866150be565b90508281036080840152615f308185614ff9565b98975050505050505050565b600060208284031215615f4e57600080fd5b8151610dd781614f81565b600060033d1115615f725760046000803e5060005160e01c5b90565b600060443d1015615f835790565b6040516003193d81016004833e81513d6001600160401b038160248401118184111715615fb257505050505090565b8285019150815181811115615fca5750505050505090565b843d8701016020828501011115615fe45750505050505090565b615ff3602082860101876151cd565b509095945050505050565b60208082526028908201527f455243313135353a204552433131353552656365697665722072656a656374656040820152676420746f6b656e7360c01b606082015260800190565b60008251616058818460208701614fcd565b9190910192915050565b60208082526023908201527f455243313135353a206275726e2066726f6d20746865207a65726f206164647260408201526265737360e81b606082015260800190565b60208082526024908201527f455243313135353a206275726e20616d6f756e7420657863656564732062616c604082015263616e636560e01b606082015260800190565b6001600160a01b03868116825285166020820152604081018490526060810183905260a060808201819052600090614e2b90830184614ff9565b634e487b7160e01b600052603160045260246000fdfe416464726573733a206c6f772d6c6576656c2064656c65676174652063616c6c206661696c6564a2646970667358221220877984cd0061fdcff34c36c000d1ad2b2433b13361d53e609ceaa69dd658b5b564736f6c63430008090033",
    "linkReferences": {}
  },
  "methodIdentifiers": {
    "MAX_LOCK_PERIOD()": "f5540162",
    "SECONDS_PER_MONTH()": "10786deb",
    "YOP_ADDRESS()": "3f9769b8",
    "acceptGovernance()": "238efcbc",
    "accessControlManager()": "b4a0bdf3",
    "balanceOf(address,uint256)": "00fdd58e",
    "balanceOfBatch(address[],uint256[])": "4e1273f4",
    "compoundForStaking(uint256[])": "3d00028a",
    "compoundForUser(address,uint256)": "3180825f",
    "compoundWithVaultRewards(address[],uint256[])": "6076d8d6",
    "contractURI()": "e8a3d485",
    "extendStake(uint256,uint8,uint248,address[])": "8476a46f",
    "gatekeeper()": "a59c9c27",
    "governance()": "5aa6e675",
    "initialize(string,string,address,address,address,string,string,address,address)": "f41b1906",
    "isApprovedForAll(address,address)": "e985e9c5",
    "minStakeAmount()": "f1887684",
    "name()": "06fdde03",
    "owner()": "8da5cb5b",
    "owners(uint256)": "025e7c27",
    "pause()": "8456cb59",
    "paused()": "5c975abb",
    "pendingGovernance()": "f39c38a0",
    "proposeGovernance(address)": "c373a08e",
    "safeBatchTransferFrom(address,address,uint256[],uint256[],bytes)": "2eb2c2d6",
    "safeTransferFrom(address,address,uint256,uint256,bytes)": "f242432a",
    "setAccessControlManager(address)": "0e32cb86",
    "setApprovalForAll(address,bool)": "a22cb465",
    "setContractURI(string)": "938e3d7b",
    "setGatekeeper(address)": "fbb97956",
    "setMinStakeAmount(uint256)": "eb4af045",
    "setStakingLimit(uint256)": "6cb455b7",
    "stake(uint248,uint8)": "be4499ea",
    "stakeAndBoost(uint248,uint8,address[])": "2c15d566",
    "stakeAndBoostForUser(uint248,uint8,address,address[])": "c9ccd2a0",
    "stakeForUser(uint248,uint8,address)": "16af9cf6",
    "stakes(uint256)": "d5a44f86",
    "stakesFor(address)": "25a1dfe0",
    "stakingLimit()": "55ba2f4f",
    "supportsInterface(bytes4)": "01ffc9a7",
    "symbol()": "95d89b41",
    "totalSupply()": "18160ddd",
    "totalWorkingSupply()": "24384783",
    "unpause()": "3f4ba83a",
    "unstakeAll(address)": "a0d6ff9a",
    "unstakeAllAndBoost(address,address[])": "f7c6e50a",
    "unstakeSingle(uint256,address)": "71ed92fa",
    "unstakeSingleAndBoost(uint256,address,address[])": "fec87daf",
    "upgradeTo(address)": "3659cfe6",
    "upgradeToAndCall(address,bytes)": "4f1ef286",
    "uri(uint256)": "0e89341c",
    "workingBalanceOf(address)": "0c7c97c7",
    "workingBalanceOfStake(uint256)": "84758fff",
    "yopRewards()": "471fcb41"
  },
  "id": 35
}