{
  "abi": [
    {
      "inputs": [],
      "stateMutability": "nonpayable",
      "type": "constructor"
    },
    {
      "anonymous": false,
      "inputs": [
        {
          "indexed": true,
          "internalType": "address",
          "name": "_accessControlManager",
          "type": "address"
        }
      ],
      "name": "AccessControlManagerUpdated",
      "type": "event"
    },
    {
      "anonymous": false,
      "inputs": [
        {
          "indexed": false,
          "internalType": "address",
          "name": "previousAdmin",
          "type": "address"
        },
        {
          "indexed": false,
          "internalType": "address",
          "name": "newAdmin",
          "type": "address"
        }
      ],
      "name": "AdminChanged",
      "type": "event"
    },
    {
      "anonymous": false,
      "inputs": [
        {
          "indexed": true,
          "internalType": "address",
          "name": "account",
          "type": "address"
        },
        {
          "indexed": true,
          "internalType": "address",
          "name": "operator",
          "type": "address"
        },
        {
          "indexed": false,
          "internalType": "bool",
          "name": "approved",
          "type": "bool"
        }
      ],
      "name": "ApprovalForAll",
      "type": "event"
    },
    {
      "anonymous": false,
      "inputs": [
        {
          "indexed": true,
          "internalType": "address",
          "name": "beacon",
          "type": "address"
        }
      ],
      "name": "BeaconUpgraded",
      "type": "event"
    },
    {
      "anonymous": false,
      "inputs": [
        {
          "indexed": false,
          "internalType": "address",
          "name": "_guardian",
          "type": "address"
        }
      ],
      "name": "GatekeeperUpdated",
      "type": "event"
    },
    {
      "anonymous": false,
      "inputs": [
        {
          "indexed": false,
          "internalType": "address",
          "name": "_pendingGovenance",
          "type": "address"
        }
      ],
      "name": "GovenanceProposed",
      "type": "event"
    },
    {
      "anonymous": false,
      "inputs": [
        {
          "indexed": false,
          "internalType": "address",
          "name": "_govenance",
          "type": "address"
        }
      ],
      "name": "GovenanceUpdated",
      "type": "event"
    },
    {
      "anonymous": false,
      "inputs": [
        {
          "indexed": false,
          "internalType": "address",
          "name": "account",
          "type": "address"
        }
      ],
      "name": "Paused",
      "type": "event"
    },
    {
      "anonymous": false,
      "inputs": [
        {
          "indexed": true,
          "internalType": "address",
          "name": "_user",
          "type": "address"
        },
        {
          "indexed": true,
          "internalType": "uint256",
          "name": "_tokenId",
          "type": "uint256"
        },
        {
          "indexed": true,
          "internalType": "uint248",
          "name": "_amount",
          "type": "uint248"
        },
        {
          "indexed": false,
          "internalType": "uint8",
          "name": "_lockPeriod",
          "type": "uint8"
        },
        {
          "indexed": false,
          "internalType": "uint256",
          "name": "_startTime",
          "type": "uint256"
        }
      ],
      "name": "Staked",
      "type": "event"
    },
    {
      "anonymous": false,
      "inputs": [
        {
          "indexed": false,
          "internalType": "string",
          "name": "_contractURI",
          "type": "string"
        }
      ],
      "name": "StakingContractURIUpdated",
      "type": "event"
    },
    {
      "anonymous": false,
      "inputs": [
        {
          "indexed": true,
          "internalType": "uint256",
          "name": "_newLimit",
          "type": "uint256"
        }
      ],
      "name": "StakingLimitUpdated",
      "type": "event"
    },
    {
      "anonymous": false,
      "inputs": [
        {
          "indexed": true,
          "internalType": "address",
          "name": "operator",
          "type": "address"
        },
        {
          "indexed": true,
          "internalType": "address",
          "name": "from",
          "type": "address"
        },
        {
          "indexed": true,
          "internalType": "address",
          "name": "to",
          "type": "address"
        },
        {
          "indexed": false,
          "internalType": "uint256[]",
          "name": "ids",
          "type": "uint256[]"
        },
        {
          "indexed": false,
          "internalType": "uint256[]",
          "name": "values",
          "type": "uint256[]"
        }
      ],
      "name": "TransferBatch",
      "type": "event"
    },
    {
      "anonymous": false,
      "inputs": [
        {
          "indexed": true,
          "internalType": "address",
          "name": "operator",
          "type": "address"
        },
        {
          "indexed": true,
          "internalType": "address",
          "name": "from",
          "type": "address"
        },
        {
          "indexed": true,
          "internalType": "address",
          "name": "to",
          "type": "address"
        },
        {
          "indexed": false,
          "internalType": "uint256",
          "name": "id",
          "type": "uint256"
        },
        {
          "indexed": false,
          "internalType": "uint256",
          "name": "value",
          "type": "uint256"
        }
      ],
      "name": "TransferSingle",
      "type": "event"
    },
    {
      "anonymous": false,
      "inputs": [
        {
          "indexed": false,
          "internalType": "string",
          "name": "value",
          "type": "string"
        },
        {
          "indexed": true,
          "internalType": "uint256",
          "name": "id",
          "type": "uint256"
        }
      ],
      "name": "URI",
      "type": "event"
    },
    {
      "anonymous": false,
      "inputs": [
        {
          "indexed": false,
          "internalType": "address",
          "name": "account",
          "type": "address"
        }
      ],
      "name": "Unpaused",
      "type": "event"
    },
    {
      "anonymous": false,
      "inputs": [
        {
          "indexed": true,
          "internalType": "address",
          "name": "_user",
          "type": "address"
        },
        {
          "indexed": true,
          "internalType": "uint256",
          "name": "_tokenId",
          "type": "uint256"
        },
        {
          "indexed": true,
          "internalType": "uint248",
          "name": "_amount",
          "type": "uint248"
        },
        {
          "indexed": false,
          "internalType": "uint8",
          "name": "_lockPeriod",
          "type": "uint8"
        },
        {
          "indexed": false,
          "internalType": "uint256",
          "name": "_startTime",
          "type": "uint256"
        }
      ],
      "name": "Unstaked",
      "type": "event"
    },
    {
      "anonymous": false,
      "inputs": [
        {
          "indexed": true,
          "internalType": "address",
          "name": "implementation",
          "type": "address"
        }
      ],
      "name": "Upgraded",
      "type": "event"
    },
    {
      "inputs": [],
      "name": "MAX_LOCK_PERIOD",
      "outputs": [
        {
          "internalType": "uint8",
          "name": "",
          "type": "uint8"
        }
      ],
      "stateMutability": "view",
      "type": "function"
    },
    {
      "inputs": [],
      "name": "SECONDS_PER_MONTH",
      "outputs": [
        {
          "internalType": "uint256",
          "name": "",
          "type": "uint256"
        }
      ],
      "stateMutability": "view",
      "type": "function"
    },
    {
      "inputs": [],
      "name": "YOP_ADDRESS",
      "outputs": [
        {
          "internalType": "address",
          "name": "",
          "type": "address"
        }
      ],
      "stateMutability": "view",
      "type": "function"
    },
    {
      "inputs": [],
      "name": "acceptGovernance",
      "outputs": [],
      "stateMutability": "nonpayable",
      "type": "function"
    },
    {
      "inputs": [],
      "name": "accessControlManager",
      "outputs": [
        {
          "internalType": "address",
          "name": "",
          "type": "address"
        }
      ],
      "stateMutability": "view",
      "type": "function"
    },
    {
      "inputs": [
        {
          "internalType": "address",
          "name": "account",
          "type": "address"
        },
        {
          "internalType": "uint256",
          "name": "id",
          "type": "uint256"
        }
      ],
      "name": "balanceOf",
      "outputs": [
        {
          "internalType": "uint256",
          "name": "",
          "type": "uint256"
        }
      ],
      "stateMutability": "view",
      "type": "function"
    },
    {
      "inputs": [
        {
          "internalType": "address[]",
          "name": "accounts",
          "type": "address[]"
        },
        {
          "internalType": "uint256[]",
          "name": "ids",
          "type": "uint256[]"
        }
      ],
      "name": "balanceOfBatch",
      "outputs": [
        {
          "internalType": "uint256[]",
          "name": "",
          "type": "uint256[]"
        }
      ],
      "stateMutability": "view",
      "type": "function"
    },
    {
      "inputs": [],
      "name": "contractURI",
      "outputs": [
        {
          "internalType": "string",
          "name": "",
          "type": "string"
        }
      ],
      "stateMutability": "view",
      "type": "function"
    },
    {
      "inputs": [],
      "name": "gatekeeper",
      "outputs": [
        {
          "internalType": "address",
          "name": "",
          "type": "address"
        }
      ],
      "stateMutability": "view",
      "type": "function"
    },
    {
      "inputs": [],
      "name": "governance",
      "outputs": [
        {
          "internalType": "address",
          "name": "",
          "type": "address"
        }
      ],
      "stateMutability": "view",
      "type": "function"
    },
    {
      "inputs": [
        {
          "internalType": "string",
          "name": "_name",
          "type": "string"
        },
        {
          "internalType": "string",
          "name": "_symbol",
          "type": "string"
        },
        {
          "internalType": "address",
          "name": "_governance",
          "type": "address"
        },
        {
          "internalType": "address",
          "name": "_gatekeeper",
          "type": "address"
        },
        {
          "internalType": "address",
          "name": "_yopRewards",
          "type": "address"
        },
        {
          "internalType": "string",
          "name": "_uri",
          "type": "string"
        },
        {
          "internalType": "string",
          "name": "_contractURI",
          "type": "string"
        },
        {
          "internalType": "address",
          "name": "_owner",
          "type": "address"
        },
        {
          "internalType": "address",
          "name": "_accessControlManager",
          "type": "address"
        }
      ],
      "name": "initialize",
      "outputs": [],
      "stateMutability": "nonpayable",
      "type": "function"
    },
    {
      "inputs": [
        {
          "internalType": "address",
          "name": "account",
          "type": "address"
        },
        {
          "internalType": "address",
          "name": "operator",
          "type": "address"
        }
      ],
      "name": "isApprovedForAll",
      "outputs": [
        {
          "internalType": "bool",
          "name": "",
          "type": "bool"
        }
      ],
      "stateMutability": "view",
      "type": "function"
    },
    {
      "inputs": [],
      "name": "minStakeAmount",
      "outputs": [
        {
          "internalType": "uint256",
          "name": "",
          "type": "uint256"
        }
      ],
      "stateMutability": "view",
      "type": "function"
    },
    {
      "inputs": [],
      "name": "name",
      "outputs": [
        {
          "internalType": "string",
          "name": "",
          "type": "string"
        }
      ],
      "stateMutability": "view",
      "type": "function"
    },
    {
      "inputs": [],
      "name": "owner",
      "outputs": [
        {
          "internalType": "address",
          "name": "",
          "type": "address"
        }
      ],
      "stateMutability": "view",
      "type": "function"
    },
    {
      "inputs": [
        {
          "internalType": "uint256",
          "name": "",
          "type": "uint256"
        }
      ],
      "name": "owners",
      "outputs": [
        {
          "internalType": "address",
          "name": "",
          "type": "address"
        }
      ],
      "stateMutability": "view",
      "type": "function"
    },
    {
      "inputs": [],
      "name": "pause",
      "outputs": [],
      "stateMutability": "nonpayable",
      "type": "function"
    },
    {
      "inputs": [],
      "name": "paused",
      "outputs": [
        {
          "internalType": "bool",
          "name": "",
          "type": "bool"
        }
      ],
      "stateMutability": "view",
      "type": "function"
    },
    {
      "inputs": [],
      "name": "pendingGovernance",
      "outputs": [
        {
          "internalType": "address",
          "name": "",
          "type": "address"
        }
      ],
      "stateMutability": "view",
      "type": "function"
    },
    {
      "inputs": [
        {
          "internalType": "address",
          "name": "_pendingGovernance",
          "type": "address"
        }
      ],
      "name": "proposeGovernance",
      "outputs": [],
      "stateMutability": "nonpayable",
      "type": "function"
    },
    {
      "inputs": [
        {
          "internalType": "address",
          "name": "from",
          "type": "address"
        },
        {
          "internalType": "address",
          "name": "to",
          "type": "address"
        },
        {
          "internalType": "uint256[]",
          "name": "ids",
          "type": "uint256[]"
        },
        {
          "internalType": "uint256[]",
          "name": "amounts",
          "type": "uint256[]"
        },
        {
          "internalType": "bytes",
          "name": "data",
          "type": "bytes"
        }
      ],
      "name": "safeBatchTransferFrom",
      "outputs": [],
      "stateMutability": "nonpayable",
      "type": "function"
    },
    {
      "inputs": [
        {
          "internalType": "address",
          "name": "from",
          "type": "address"
        },
        {
          "internalType": "address",
          "name": "to",
          "type": "address"
        },
        {
          "internalType": "uint256",
          "name": "id",
          "type": "uint256"
        },
        {
          "internalType": "uint256",
          "name": "amount",
          "type": "uint256"
        },
        {
          "internalType": "bytes",
          "name": "data",
          "type": "bytes"
        }
      ],
      "name": "safeTransferFrom",
      "outputs": [],
      "stateMutability": "nonpayable",
      "type": "function"
    },
    {
      "inputs": [
        {
          "internalType": "address",
          "name": "_accessControlManager",
          "type": "address"
        }
      ],
      "name": "setAccessControlManager",
      "outputs": [],
      "stateMutability": "nonpayable",
      "type": "function"
    },
    {
      "inputs": [
        {
          "internalType": "address",
          "name": "operator",
          "type": "address"
        },
        {
          "internalType": "bool",
          "name": "approved",
          "type": "bool"
        }
      ],
      "name": "setApprovalForAll",
      "outputs": [],
      "stateMutability": "nonpayable",
      "type": "function"
    },
    {
      "inputs": [
        {
          "internalType": "string",
          "name": "_contractURI",
          "type": "string"
        }
      ],
      "name": "setContractURI",
      "outputs": [],
      "stateMutability": "nonpayable",
      "type": "function"
    },
    {
      "inputs": [
        {
          "internalType": "address",
          "name": "_gatekeeper",
          "type": "address"
        }
      ],
      "name": "setGatekeeper",
      "outputs": [],
      "stateMutability": "nonpayable",
      "type": "function"
    },
    {
      "inputs": [
        {
          "internalType": "uint256",
          "name": "_minAmount",
          "type": "uint256"
        }
      ],
      "name": "setMinStakeAmount",
      "outputs": [],
      "stateMutability": "nonpayable",
      "type": "function"
    },
    {
      "inputs": [
        {
          "internalType": "uint256",
          "name": "_limit",
          "type": "uint256"
        }
      ],
      "name": "setStakingLimit",
      "outputs": [],
      "stateMutability": "nonpayable",
      "type": "function"
    },
    {
      "inputs": [
        {
          "internalType": "uint248",
          "name": "_amount",
          "type": "uint248"
        },
        {
          "internalType": "uint8",
          "name": "_lockPeriod",
          "type": "uint8"
        }
      ],
      "name": "stake",
      "outputs": [
        {
          "internalType": "uint256",
          "name": "",
          "type": "uint256"
        }
      ],
      "stateMutability": "nonpayable",
      "type": "function"
    },
    {
      "inputs": [
        {
          "internalType": "uint256",
          "name": "",
          "type": "uint256"
        }
      ],
      "name": "stakes",
      "outputs": [
        {
          "internalType": "uint8",
          "name": "lockPeriod",
          "type": "uint8"
        },
        {
          "internalType": "uint248",
          "name": "amount",
          "type": "uint248"
        },
        {
          "internalType": "uint256",
          "name": "startTime",
          "type": "uint256"
        },
        {
          "internalType": "uint256",
          "name": "lastTransferTime",
          "type": "uint256"
        }
      ],
      "stateMutability": "view",
      "type": "function"
    },
    {
      "inputs": [
        {
          "internalType": "address",
          "name": "_user",
          "type": "address"
        }
      ],
      "name": "stakesFor",
      "outputs": [
        {
          "internalType": "uint256[]",
          "name": "",
          "type": "uint256[]"
        }
      ],
      "stateMutability": "view",
      "type": "function"
    },
    {
      "inputs": [],
      "name": "stakingLimit",
      "outputs": [
        {
          "internalType": "uint256",
          "name": "",
          "type": "uint256"
        }
      ],
      "stateMutability": "view",
      "type": "function"
    },
    {
      "inputs": [
        {
          "internalType": "bytes4",
          "name": "interfaceId",
          "type": "bytes4"
        }
      ],
      "name": "supportsInterface",
      "outputs": [
        {
          "internalType": "bool",
          "name": "",
          "type": "bool"
        }
      ],
      "stateMutability": "view",
      "type": "function"
    },
    {
      "inputs": [],
      "name": "symbol",
      "outputs": [
        {
          "internalType": "string",
          "name": "",
          "type": "string"
        }
      ],
      "stateMutability": "view",
      "type": "function"
    },
    {
      "inputs": [],
      "name": "totalWorkingSupply",
      "outputs": [
        {
          "internalType": "uint256",
          "name": "",
          "type": "uint256"
        }
      ],
      "stateMutability": "view",
      "type": "function"
    },
    {
      "inputs": [],
      "name": "unpause",
      "outputs": [],
      "stateMutability": "nonpayable",
      "type": "function"
    },
    {
      "inputs": [
        {
          "internalType": "address",
          "name": "_to",
          "type": "address"
        }
      ],
      "name": "unstakeAll",
      "outputs": [],
      "stateMutability": "nonpayable",
      "type": "function"
    },
    {
      "inputs": [
        {
          "internalType": "uint256",
          "name": "_stakeId",
          "type": "uint256"
        },
        {
          "internalType": "address",
          "name": "_to",
          "type": "address"
        }
      ],
      "name": "unstakeSingle",
      "outputs": [],
      "stateMutability": "nonpayable",
      "type": "function"
    },
    {
      "inputs": [
        {
          "internalType": "address",
          "name": "newImplementation",
          "type": "address"
        }
      ],
      "name": "upgradeTo",
      "outputs": [],
      "stateMutability": "nonpayable",
      "type": "function"
    },
    {
      "inputs": [
        {
          "internalType": "address",
          "name": "newImplementation",
          "type": "address"
        },
        {
          "internalType": "bytes",
          "name": "data",
          "type": "bytes"
        }
      ],
      "name": "upgradeToAndCall",
      "outputs": [],
      "stateMutability": "payable",
      "type": "function"
    },
    {
      "inputs": [
        {
          "internalType": "uint256",
          "name": "",
          "type": "uint256"
        }
      ],
      "name": "uri",
      "outputs": [
        {
          "internalType": "string",
          "name": "",
          "type": "string"
        }
      ],
      "stateMutability": "view",
      "type": "function"
    },
    {
      "inputs": [
        {
          "internalType": "address",
          "name": "_user",
          "type": "address"
        }
      ],
      "name": "workingBalanceOf",
      "outputs": [
        {
          "internalType": "uint256",
          "name": "",
          "type": "uint256"
        }
      ],
      "stateMutability": "view",
      "type": "function"
    },
    {
      "inputs": [
        {
          "internalType": "uint256",
          "name": "_stakeId",
          "type": "uint256"
        }
      ],
      "name": "workingBalanceOfStake",
      "outputs": [
        {
          "internalType": "uint256",
          "name": "",
          "type": "uint256"
        }
      ],
      "stateMutability": "view",
      "type": "function"
    },
    {
      "inputs": [],
      "name": "yopRewards",
      "outputs": [
        {
          "internalType": "address",
          "name": "",
          "type": "address"
        }
      ],
      "stateMutability": "view",
      "type": "function"
    }
  ],
  "bytecode": {
    "object": "0x60a06040523060805234801561001457600080fd5b50608051614a0b61004560003960008181610d4201528181610d8201528181610f6c0152610fac0152614a0b6000f3fe6080604052600436106102665760003560e01c806371ed92fa11610144578063c373a08e116100b6578063f18876841161007a578063f18876841461078e578063f242432a146107a5578063f39c38a0146107c5578063f41b1906146107e5578063f554016214610805578063fbb979561461082c57600080fd5b8063c373a08e146106a4578063d5a44f86146106c4578063e8a3d48514610710578063e985e9c514610725578063eb4af0451461076e57600080fd5b806395d89b411161010857806395d89b41146105ee578063a0d6ff9a14610603578063a22cb46514610623578063a59c9c2714610643578063b4a0bdf314610663578063be4499ea1461068457600080fd5b806371ed92fa146105585780638456cb591461057857806384758fff1461058d5780638da5cb5b146105ad578063938e3d7b146105ce57600080fd5b80632eb2c2d6116101dd5780634e1273f4116101a15780634e1273f4146104af5780634f1ef286146104cf57806355ba2f4f146104e25780635aa6e675146104f95780635c975abb146105195780636cb455b71461053857600080fd5b80632eb2c2d6146104115780633659cfe6146104315780633f4ba83a146104515780633f9769b814610466578063471fcb411461048e57600080fd5b80630e32cb861161022f5780630e32cb861461035f5780630e89341c1461038157806310786deb146103a1578063238efcbc146103b857806324384783146103cd57806325a1dfe0146103e457600080fd5b8062fdd58e1461026b57806301ffc9a71461029e578063025e7c27146102ce57806306fdde031461031d5780630c7c97c71461033f575b600080fd5b34801561027757600080fd5b5061028b610286366004613c40565b61084c565b6040519081526020015b60405180910390f35b3480156102aa57600080fd5b506102be6102b9366004613c80565b6108e5565b6040519015158152602001610295565b3480156102da57600080fd5b506103056102e9366004613c9d565b610139602052600090815260409020546001600160a01b031681565b6040516001600160a01b039091168152602001610295565b34801561032957600080fd5b50610332610937565b6040516102959190613d0e565b34801561034b57600080fd5b5061028b61035a366004613d21565b6109c6565b34801561036b57600080fd5b5061037f61037a366004613d21565b610ae7565b005b34801561038d57600080fd5b5061033261039c366004613c9d565b610b26565b3480156103ad57600080fd5b5061028b6228206f81565b3480156103c457600080fd5b5061037f610bba565b3480156103d957600080fd5b5061028b6101345481565b3480156103f057600080fd5b506104046103ff366004613d21565b610c34565b6040516102959190613d77565b34801561041d57600080fd5b5061037f61042c366004613ed3565b610ca0565b34801561043d57600080fd5b5061037f61044c366004613d21565b610d37565b34801561045d57600080fd5b5061037f610dfd565b34801561047257600080fd5b5061030573ae1eaae3f627aaca434127644371b67b1844405181565b34801561049a57600080fd5b5061013654610305906001600160a01b031681565b3480156104bb57600080fd5b506104046104ca366004613f7c565b610e38565b61037f6104dd366004614046565b610f61565b3480156104ee57600080fd5b5061028b61013a5481565b34801561050557600080fd5b50609754610305906001600160a01b031681565b34801561052557600080fd5b50609954600160a01b900460ff166102be565b34801561054457600080fd5b5061037f610553366004613c9d565b61101b565b34801561056457600080fd5b5061037f610573366004614089565b61108c565b34801561058457600080fd5b5061037f6110c0565b34801561059957600080fd5b5061028b6105a8366004613c9d565b6110dd565b3480156105b957600080fd5b5061013254610305906001600160a01b031681565b3480156105da57600080fd5b5061037f6105e93660046140b5565b61116a565b3480156105fa57600080fd5b506103326111a6565b34801561060f57600080fd5b5061037f61061e366004613d21565b6111b4565b34801561062f57600080fd5b5061037f61063e3660046140f7565b6111e7565b34801561064f57600080fd5b50609954610305906001600160a01b031681565b34801561066f57600080fd5b5061013754610305906001600160a01b031681565b34801561069057600080fd5b5061028b61069f36600461412e565b6111f2565b3480156106b057600080fd5b5061037f6106bf366004613d21565b61122a565b3480156106d057600080fd5b506106e46106df366004613c9d565b61132f565b6040805160ff90951685526001600160f81b039093166020850152918301526060820152608001610295565b34801561071c57600080fd5b50610332611377565b34801561073157600080fd5b506102be61074036600461416e565b6001600160a01b03918216600090815260666020908152604080832093909416825291909152205460ff1690565b34801561077a57600080fd5b5061037f610789366004613c9d565b611385565b34801561079a57600080fd5b5061028b6101335481565b3480156107b157600080fd5b5061037f6107c0366004614198565b6113be565b3480156107d157600080fd5b50609854610305906001600160a01b031681565b3480156107f157600080fd5b5061037f6108003660046141fc565b611445565b34801561081157600080fd5b5061081a603c81565b60405160ff9091168152602001610295565b34801561083857600080fd5b5061037f610847366004613d21565b611518565b60006001600160a01b0383166108bd5760405162461bcd60e51b815260206004820152602b60248201527f455243313135353a2062616c616e636520717565727920666f7220746865207a60448201526a65726f206164647265737360a81b60648201526084015b60405180910390fd5b5060009081526065602090815260408083206001600160a01b03949094168352929052205490565b60006001600160e01b03198216636cdb3d1360e11b148061091657506001600160e01b031982166303a24d0760e21b145b8061093157506301ffc9a760e01b6001600160e01b03198316145b92915050565b61012f8054610945906142fc565b80601f0160208091040260200160405190810160405280929190818152602001828054610971906142fc565b80156109be5780601f10610993576101008083540402835291602001916109be565b820191906000526020600020905b8154815290600101906020018083116109a157829003601f168201915b505050505081565b6001600160a01b038116600090815261013860209081526040808320805482518185028101850190935280835284938493929190830182828015610a2957602002820191906000526020600020905b815481526020019060010190808311610a15575b5050505050905060005b8151811015610ade57610ac0610135838381518110610a5457610a54614337565b602002602001015181548110610a6c57610a6c614337565b6000918252602091829020604080516080810182526003909302909101805460ff811684526001600160f81b0361010090910416938301939093526001830154908201526002909101546060820152611554565b610aca9084614363565b925080610ad68161437b565b915050610a33565b50909392505050565b6097546001600160a01b0316336001600160a01b031614610b1a5760405162461bcd60e51b81526004016108b490614396565b610b238161157c565b50565b606060678054610b35906142fc565b80601f0160208091040260200160405190810160405280929190818152602001828054610b61906142fc565b8015610bae5780601f10610b8357610100808354040283529160200191610bae565b820191906000526020600020905b815481529060010190602001808311610b9157829003601f168201915b50505050509050919050565b6098546001600160a01b0316336001600160a01b031614610c1d5760405162461bcd60e51b815260206004820152601760248201527f70656e64696e6720676f7665726e616e6365206f6e6c7900000000000000000060448201526064016108b4565b609854610c32906001600160a01b03166115dd565b565b6001600160a01b03811660009081526101386020908152604091829020805483518184028101840190945280845260609392830182828015610bae57602002820191906000526020600020905b815481526020019060010190808311610c815750505050509050919050565b6001600160a01b038516331480610cbc5750610cbc8533610740565b610d235760405162461bcd60e51b815260206004820152603260248201527f455243313135353a207472616e736665722063616c6c6572206973206e6f74206044820152711bdddb995c881b9bdc88185c1c1c9bdd995960721b60648201526084016108b4565b610d30858585858561162b565b5050505050565b306001600160a01b037f0000000000000000000000000000000000000000000000000000000000000000161415610d805760405162461bcd60e51b81526004016108b4906143bf565b7f00000000000000000000000000000000000000000000000000000000000000006001600160a01b0316610db26117d8565b6001600160a01b031614610dd85760405162461bcd60e51b81526004016108b49061440b565b610de181611806565b60408051600080825260208201909252610b2391839190611839565b6097546001600160a01b0316336001600160a01b031614610e305760405162461bcd60e51b81526004016108b490614396565b610c3261197d565b60608151835114610e9d5760405162461bcd60e51b815260206004820152602960248201527f455243313135353a206163636f756e747320616e6420696473206c656e677468604482015268040dad2e6dac2e8c6d60bb1b60648201526084016108b4565b600083516001600160401b03811115610eb857610eb8613d8a565b604051908082528060200260200182016040528015610ee1578160200160208202803683370190505b50905060005b8451811015610f5957610f2c858281518110610f0557610f05614337565b6020026020010151858381518110610f1f57610f1f614337565b602002602001015161084c565b828281518110610f3e57610f3e614337565b6020908102919091010152610f528161437b565b9050610ee7565b509392505050565b306001600160a01b037f0000000000000000000000000000000000000000000000000000000000000000161415610faa5760405162461bcd60e51b81526004016108b4906143bf565b7f00000000000000000000000000000000000000000000000000000000000000006001600160a01b0316610fdc6117d8565b6001600160a01b0316146110025760405162461bcd60e51b81526004016108b49061440b565b61100b82611806565b61101782826001611839565b5050565b6097546001600160a01b0316336001600160a01b03161461104e5760405162461bcd60e51b81526004016108b490614396565b8061013a5414610b235761013a81905560405181907f755562ed366a717b0eb725893ab6581539ee371d492ffe52edb7ec5ae44a608990600090a250565b609954600160a01b900460ff16156110b65760405162461bcd60e51b81526004016108b490614457565b6110178282611a1a565b6097546001600160a01b03166110d581611ca1565b610b23611d11565b61013554600090821015611162576000610135838154811061110157611101614337565b6000918252602091829020604080516080810182526003909302909101805460ff811684526001600160f81b0361010090910416938301939093526001830154908201526002909101546060820152905061115b81611554565b9392505050565b506000919050565b6097546001600160a01b0316336001600160a01b03161461119d5760405162461bcd60e51b81526004016108b490614396565b610b2381611d76565b6101308054610945906142fc565b609954600160a01b900460ff16156111de5760405162461bcd60e51b81526004016108b490614457565b610b2381611dba565b6110173383836120cf565b609954600090600160a01b900460ff161561121f5760405162461bcd60e51b81526004016108b490614457565b61115b8383336121b0565b6097546001600160a01b0316336001600160a01b03161461125d5760405162461bcd60e51b81526004016108b490614396565b6001600160a01b0381166112835760405162461bcd60e51b81526004016108b490614481565b6097546001600160a01b03828116911614156112da5760405162461bcd60e51b8152602060048201526016602482015275616c72656164792074686520676f7665726e616e636560501b60448201526064016108b4565b609880546001600160a01b0319166001600160a01b0383169081179091556040519081527f9a35a2aeba8eb8a43609155078e2fd5cbafd797e0a76ec701999554effda58e4906020015b60405180910390a150565b610135818154811061134057600080fd5b600091825260209091206003909102018054600182015460029092015460ff821693506101009091046001600160f81b0316919084565b6101318054610945906142fc565b6097546001600160a01b0316336001600160a01b0316146113b85760405162461bcd60e51b81526004016108b490614396565b61013355565b6001600160a01b0385163314806113da57506113da8533610740565b6114385760405162461bcd60e51b815260206004820152602960248201527f455243313135353a2063616c6c6572206973206e6f74206f776e6572206e6f7260448201526808185c1c1c9bdd995960ba1b60648201526084016108b4565b610d308585858585612639565b600054610100900460ff166114605760005460ff1615611464565b303b155b6114c75760405162461bcd60e51b815260206004820152602e60248201527f496e697469616c697a61626c653a20636f6e747261637420697320616c72656160448201526d191e481a5b9a5d1a585b1a5e995960921b60648201526084016108b4565b600054610100900460ff161580156114e9576000805461ffff19166101011790555b6114fa8a8a8a8a8a8a8a8a8a612769565b801561150c576000805461ff00191690555b50505050505050505050565b6097546001600160a01b0316336001600160a01b03161461154b5760405162461bcd60e51b81526004016108b490614396565b610b23816127bc565b6000816000015160ff16826020015161156d91906144aa565b6001600160f81b031692915050565b610137546001600160a01b03828116911614610b235761013780546001600160a01b0319166001600160a01b0383169081179091556040517f902054a0679f0dccfd7789d7c0c560ee23e8a31b430ddd0a802c5c6b774682ef90600090a250565b609780546001600160a01b0319166001600160a01b0383169081179091556040519081527f82d3cb1aac85eaba89545486a5bdf332a6649ee2e53bccf1e2aec0683afced0e90602001611324565b815183511461164c5760405162461bcd60e51b81526004016108b4906144d9565b6001600160a01b0384166116725760405162461bcd60e51b81526004016108b490614521565b336116818187878787876128ae565b60005b845181101561176a5760008582815181106116a1576116a1614337565b6020026020010151905060008583815181106116bf576116bf614337565b60209081029190910181015160008481526065835260408082206001600160a01b038e1683529093529190912054909150818110156117105760405162461bcd60e51b81526004016108b490614566565b60008381526065602090815260408083206001600160a01b038e8116855292528083208585039055908b1682528120805484929061174f908490614363565b92505081905550505050806117639061437b565b9050611684565b50846001600160a01b0316866001600160a01b0316826001600160a01b03167f4a39dc06d4c0dbc64b70af90fd698a233a518aa5d07e595d983b8c0526c8f7fb87876040516117ba9291906145b0565b60405180910390a46117d0818787878787612ada565b505050505050565b7f360894a13ba1a3210667c828492db98dca3e2076cc3735a920a3ca505d382bbc546001600160a01b031690565b6097546001600160a01b0316336001600160a01b031614610b235760405162461bcd60e51b81526004016108b490614396565b60006118436117d8565b905061184e84612c45565b60008351118061185b5750815b1561186c5761186a8484612cea565b505b7f4910fdfa16fed3260ed0e7147f7cc6da11a60208b5b9406d12a635614ffd9143805460ff16610d3057805460ff191660011781556040516001600160a01b03831660248201526118eb90869060440160408051601f198184030181529190526020810180516001600160e01b0316631b2ce7f360e11b179052612cea565b50805460ff191681556118fc6117d8565b6001600160a01b0316826001600160a01b0316146119745760405162461bcd60e51b815260206004820152602f60248201527f45524331393637557067726164653a207570677261646520627265616b73206660448201526e75727468657220757067726164657360881b60648201526084016108b4565b610d3085612dd5565b609954600160a01b900460ff166119cd5760405162461bcd60e51b815260206004820152601460248201527314185d5cd8589b194e881b9bdd081c185d5cd95960621b60448201526064016108b4565b6099805460ff60a01b191690557f5db9ee0a495bf2e6ff9c91a7834c1ba4fdd244a5e8aa4e537bd38aeae4b073aa335b6040516001600160a01b03909116815260200160405180910390a1565b6001600160a01b038116611a405760405162461bcd60e51b81526004016108b4906145d5565b6000611a4c338461084c565b11611a825760405162461bcd60e51b8152602060048201526006602482015265217374616b6560d01b60448201526064016108b4565b60006101358381548110611a9857611a98614337565b600091825260209182902060408051608081018252600393909302909101805460ff81168085526101009091046001600160f81b0316948401859052600182015492840183905260029091015460608401529193509190611af884612e15565b611b2d5760405162461bcd60e51b81526020600482015260066024820152651b1bd8dad95960d21b60448201526064016108b4565b604080516001808252818301909252600091602080830190803683370190505090508681600081518110611b6357611b63614337565b602090810291909101015261013654604051635c9e74d960e01b81526000916001600160a01b031690635c9e74d990611ba0908590600401613d77565b600060405180830381600087803b158015611bba57600080fd5b505af1158015611bce573d6000803e3d6000fd5b505050506040513d6000823e601f3d908101601f19168201604052611bf691908101906145f5565b509050611c0533896001612e42565b611c4287611c1c836001600160f81b038816614363565b73ae1eaae3f627aaca434127644371b67b184440515b6001600160a01b03169190612f47565b6001600160f81b03841688336040805160ff88168152602081018a90526001600160a01b0392909216917f6e767f2d8b01315045331a1d7e89c86915166230a0e38f0715c9e3569a3a5cab910160405180910390a45050505050505050565b336001600160a01b0382161480611cd757506099546001600160a01b031615801590611cd757506099546001600160a01b031633145b610b235760405162461bcd60e51b815260206004820152600b60248201526a08585d5d1a1bdc9a5cd95960aa1b60448201526064016108b4565b609954600160a01b900460ff1615611d3b5760405162461bcd60e51b81526004016108b490614457565b6099805460ff60a01b1916600160a01b1790557f62e78cea01bee320cd4e420270b5ea74000d11b0c9f74754ebdbfc544b05a2586119fd3390565b8051611d8a90610131906020840190613b8b565b507f102a0d6da3e12328128682f99229d790c4006365d29d6e6be1d5dd28f6e5cdaf816040516113249190613d0e565b6001600160a01b038116611de05760405162461bcd60e51b81526004016108b4906145d5565b3360009081526101386020908152604080832080548251818502810185019093528083529192909190830182828015611e3857602002820191906000526020600020905b815481526020019060010190808311611e24575b505050505090506000611e4a82612faf565b90506000815111611e895760405162461bcd60e51b8152602060048201526009602482015268085d5b9b1bd8dad95960ba1b60448201526064016108b4565b61013654604051635c9e74d960e01b81526000916001600160a01b031690635c9e74d990611ebb908590600401613d77565b600060405180830381600087803b158015611ed557600080fd5b505af1158015611ee9573d6000803e3d6000fd5b505050506040513d6000823e601f3d908101601f19168201604052611f1191908101906145f5565b509050600082516001600160401b03811115611f2f57611f2f613d8a565b604051908082528060200260200182016040528015611f58578160200160208202803683370190505b50905060005b83518110156120a4576001828281518110611f7b57611f7b614337565b6020026020010181815250506000610135858381518110611f9e57611f9e614337565b602002602001015181548110611fb657611fb6614337565b600091825260209182902060408051608081018252600393909302909101805460ff81168085526101009091046001600160f81b03169484018590526001820154928401839052600290910154606084015291935091906120178288614363565b9650816001600160f81b031688868151811061203557612035614337565b60200260200101516120443390565b6040805160ff86168152602081018890526001600160a01b0392909216917f6e767f2d8b01315045331a1d7e89c86915166230a0e38f0715c9e3569a3a5cab910160405180910390a450505050808061209c9061437b565b915050611f5e565b506120b0338483613196565b610d30858373ae1eaae3f627aaca434127644371b67b18444051611c32565b816001600160a01b0316836001600160a01b031614156121435760405162461bcd60e51b815260206004820152602960248201527f455243313135353a2073657474696e6720617070726f76616c20737461747573604482015268103337b91039b2b63360b91b60648201526084016108b4565b6001600160a01b03838116600081815260666020908152604080832094871680845294825291829020805460ff191686151590811790915591519182527f17307eab39ab6107e8899845ad3d59bd9653f200f220920489ca2b5937696c31910160405180910390a3505050565b600061013354846001600160f81b0316116121f75760405162461bcd60e51b815260206004820152600760248201526608585b5bdd5b9d60ca1b60448201526064016108b4565b60008360ff1611801561220e5750603c60ff841611155b6122485760405162461bcd60e51b815260206004820152600b60248201526a085b1bd8dad4195c9a5bd960aa1b60448201526064016108b4565b6001600160f81b03841673ae1eaae3f627aaca434127644371b67b184440516001600160a01b03166370a08231336040516001600160e01b031960e084901b1681526001600160a01b03909116600482015260240160206040518083038186803b1580156122b557600080fd5b505afa1580156122c9573d6000803e3d6000fd5b505050506040513d601f19601f820116820180604052508101906122ed919061469c565b10156123265760405162461bcd60e51b81526020600482015260086024820152672162616c616e636560c01b60448201526064016108b4565b61013a5461233760ff8516866144aa565b6001600160f81b03166101345461234e9190614363565b111561238c5760405162461bcd60e51b815260206004820152600d60248201526c1b1a5b5a5d081c995858da1959609a1b60448201526064016108b4565b610137546001600160a01b0316156124585761013754604051631709ef0760e01b81526001600160a01b03848116600483015230602483015290911690631709ef079060440160206040518083038186803b1580156123ea57600080fd5b505afa1580156123fe573d6000803e3d6000fd5b505050506040513d601f19601f8201168201806040525081019061242291906146b5565b6124585760405162461bcd60e51b81526020600482015260076024820152662161636365737360c81b60448201526064016108b4565b6101355461013654604051630ee2bb3160e01b8152600481018390526001600160a01b0390911690630ee2bb3190602401600060405180830381600087803b1580156124a357600080fd5b505af11580156124b7573d6000803e3d6000fd5b50505050600060405180608001604052808660ff168152602001876001600160f81b031681526020016124e74290565b81526020014290526101358054600181018255600091909152815160208301516001600160f81b03166101000260ff9091161760039091027fdf37d27e88e3bd0b85262482997e409a463f5be0ebb19232abf994dd8474090d81019190915560408201517fdf37d27e88e3bd0b85262482997e409a463f5be0ebb19232abf994dd8474090e82015560608201517fdf37d27e88e3bd0b85262482997e409a463f5be0ebb19232abf994dd8474090f9091015590506125cb6125a53390565b73ae1eaae3f627aaca434127644371b67b1844405190306001600160f81b038a16613327565b60606125da8584600184613365565b6001600160f81b038716836001600160a01b0387167f9dda60d7e9f9af0bf992678586e599f0964aea9345529f373a73723cdae2baa189426040805160ff909316835260208301919091520160405180910390a4509095945050505050565b6001600160a01b03841661265f5760405162461bcd60e51b81526004016108b490614521565b3361267e81878761266f88613468565b61267888613468565b876128ae565b60008481526065602090815260408083206001600160a01b038a168452909152902054838110156126c15760405162461bcd60e51b81526004016108b490614566565b60008581526065602090815260408083206001600160a01b038b8116855292528083208785039055908816825281208054869290612700908490614363565b909155505060408051868152602081018690526001600160a01b03808916928a821692918616917fc3d58168c5ae7397731d063d5bbf3d657854427343f4c083240f7aacaa2d0f62910160405180910390a46127608288888888886134b3565b50505050505050565b600054610100900460ff166127905760405162461bcd60e51b81526004016108b4906146d2565b6127998461357d565b6127a387876135bd565b6127b189898786868661360e565b505050505050505050565b6001600160a01b0381166128095760405162461bcd60e51b81526020600482015260146024820152731859191c995cdcc81a5cc81b9bdd081d985b1a5960621b60448201526064016108b4565b6099546001600160a01b03828116911614156128605760405162461bcd60e51b815260206004820152601660248201527530b63932b0b23c903a34329033b0ba32b5b2b2b832b960511b60448201526064016108b4565b609980546001600160a01b0319166001600160a01b0383169081179091556040519081527f2ae33fe0c6f544449738f838b5b9f63f9487de59447d108fcaf7aa24c06048ef90602001611324565b60005b83518110156127605760008482815181106128ce576128ce614337565b6020026020010151905060008483815181106128ec576128ec614337565b60200260200101519050600081116129305760405162461bcd60e51b815260206004820152600760248201526608585b5bdd5b9d60ca1b60448201526064016108b4565b6000610135838154811061294657612946614337565b9060005260206000209060030201905061295d4290565b6002820181905560408051608081018252835460ff8116825261010090046001600160f81b0316602082015260018401549181019190915260608101919091526000906129a990611554565b90506001600160a01b038a1615612a395760006129c68b8661084c565b116129fe5760405162461bcd60e51b815260206004820152600860248201526708585b1b1bddd95960c21b60448201526064016108b4565b806101346000828254612a11919061471d565b90915550506001600160a01b038a16600090815261013860205260409020612a3990856136f6565b6001600160a01b03891615612a9157806101346000828254612a5b9190614363565b90915550506001600160a01b03891660009081526101386020908152604082208054600181018255908352912001849055612ac3565b6101358481548110612aa557612aa5614337565b60009182526020822060039091020181815560018101829055600201555b505050508080612ad29061437b565b9150506128b1565b6001600160a01b0384163b156117d05760405163bc197c8160e01b81526001600160a01b0385169063bc197c8190612b1e9089908990889088908890600401614734565b602060405180830381600087803b158015612b3857600080fd5b505af1925050508015612b68575060408051601f3d908101601f19168201909252612b6591810190614792565b60015b612c1557612b746147af565b806308c379a01415612bae5750612b896147cb565b80612b945750612bb0565b8060405162461bcd60e51b81526004016108b49190613d0e565b505b60405162461bcd60e51b815260206004820152603460248201527f455243313135353a207472616e7366657220746f206e6f6e20455243313135356044820152732932b1b2b4bb32b91034b6b83632b6b2b73a32b960611b60648201526084016108b4565b6001600160e01b0319811663bc197c8160e01b146127605760405162461bcd60e51b81526004016108b490614854565b803b612ca95760405162461bcd60e51b815260206004820152602d60248201527f455243313936373a206e657720696d706c656d656e746174696f6e206973206e60448201526c1bdd08184818dbdb9d1c9858dd609a1b60648201526084016108b4565b7f360894a13ba1a3210667c828492db98dca3e2076cc3735a920a3ca505d382bbc80546001600160a01b0319166001600160a01b0392909216919091179055565b6060823b612d495760405162461bcd60e51b815260206004820152602660248201527f416464726573733a2064656c65676174652063616c6c20746f206e6f6e2d636f6044820152651b9d1c9858dd60d21b60648201526084016108b4565b600080846001600160a01b031684604051612d64919061489c565b600060405180830381855af49150503d8060008114612d9f576040519150601f19603f3d011682016040523d82523d6000602084013e612da4565b606091505b5091509150612dcc82826040518060600160405280602781526020016149af602791396137df565b95945050505050565b612dde81612c45565b6040516001600160a01b038216907fbc7cd75a20ee27fd9adebab32041f755214dbc6bffa90cc0225b39da2e5c2d3b90600090a250565b8051600090612e2b906228206f9060ff166148b8565b8260400151612e3a9190614363565b421192915050565b6001600160a01b038316612e685760405162461bcd60e51b81526004016108b4906148d7565b33612e9781856000612e7987613468565b612e8287613468565b604051806020016040528060008152506128ae565b60008381526065602090815260408083206001600160a01b038816845290915290205482811015612eda5760405162461bcd60e51b81526004016108b49061491a565b60008481526065602090815260408083206001600160a01b03898116808652918452828520888703905582518981529384018890529092908616917fc3d58168c5ae7397731d063d5bbf3d657854427343f4c083240f7aacaa2d0f62910160405180910390a45050505050565b6040516001600160a01b038316602482015260448101829052612faa90849063a9059cbb60e01b906064015b60408051601f198184030181529190526020810180516001600160e01b03166001600160e01b031990931692909217909152613818565b505050565b6060600082516001600160401b03811115612fcc57612fcc613d8a565b604051908082528060200260200182016040528015612ff5578160200160208202803683370190505b5090506000805b84518110156130eb57600061013586838151811061301c5761301c614337565b60200260200101518154811061303457613034614337565b6000918252602091829020604080516080810182526003909302909101805460ff811684526001600160f81b0361010090910416938301939093526001830154908201526002909101546060820152905061308e81612e15565b156130d8578582815181106130a5576130a5614337565b60200260200101518484815181106130bf576130bf614337565b6020908102919091010152826130d48161437b565b9350505b50806130e38161437b565b915050612ffc565b506060811561318e57816001600160401b0381111561310c5761310c613d8a565b604051908082528060200260200182016040528015613135578160200160208202803683370190505b50905060005b8281101561318c5783818151811061315557613155614337565b602002602001015182828151811061316f5761316f614337565b6020908102919091010152806131848161437b565b91505061313b565b505b949350505050565b6001600160a01b0383166131bc5760405162461bcd60e51b81526004016108b4906148d7565b80518251146131dd5760405162461bcd60e51b81526004016108b4906144d9565b6000339050613200818560008686604051806020016040528060008152506128ae565b60005b83518110156132c857600084828151811061322057613220614337565b60200260200101519050600084838151811061323e5761323e614337565b60209081029190910181015160008481526065835260408082206001600160a01b038c16835290935291909120549091508181101561328f5760405162461bcd60e51b81526004016108b49061491a565b60009283526065602090815260408085206001600160a01b038b16865290915290922091039055806132c08161437b565b915050613203565b5060006001600160a01b0316846001600160a01b0316826001600160a01b03167f4a39dc06d4c0dbc64b70af90fd698a233a518aa5d07e595d983b8c0526c8f7fb86866040516133199291906145b0565b60405180910390a450505050565b6040516001600160a01b038085166024830152831660448201526064810182905261335f9085906323b872dd60e01b90608401612f73565b50505050565b6001600160a01b0384166133c55760405162461bcd60e51b815260206004820152602160248201527f455243313135353a206d696e7420746f20746865207a65726f206164647265736044820152607360f81b60648201526084016108b4565b336133d68160008761266f88613468565b60008481526065602090815260408083206001600160a01b038916845290915281208054859290613408908490614363565b909155505060408051858152602081018590526001600160a01b0380881692600092918516917fc3d58168c5ae7397731d063d5bbf3d657854427343f4c083240f7aacaa2d0f62910160405180910390a4610d30816000878787876134b3565b604080516001808252818301909252606091600091906020808301908036833701905050905082816000815181106134a2576134a2614337565b602090810291909101015292915050565b6001600160a01b0384163b156117d05760405163f23a6e6160e01b81526001600160a01b0385169063f23a6e61906134f7908990899088908890889060040161495e565b602060405180830381600087803b15801561351157600080fd5b505af1925050508015613541575060408051601f3d908101601f1916820190925261353e91810190614792565b60015b61354d57612b746147af565b6001600160e01b0319811663f23a6e6160e01b146127605760405162461bcd60e51b81526004016108b490614854565b600054610100900460ff166135a45760405162461bcd60e51b81526004016108b4906146d2565b6135ac6138ea565b6135b46138ea565b610b2381613911565b600054610100900460ff166135e45760405162461bcd60e51b81526004016108b4906146d2565b6135ed82613941565b6135f681613952565b6135fe61397b565b6136066139b1565b6110176138ea565b600054610100900460ff166136355760405162461bcd60e51b81526004016108b4906146d2565b6001600160a01b03841661365b5760405162461bcd60e51b81526004016108b4906145d5565b6001600160a01b0382166136815760405162461bcd60e51b81526004016108b4906145d5565b85516136959061012f906020890190613b8b565b5084516136aa90610130906020880190613b8b565b5061013680546001600160a01b038087166001600160a01b03199283161790925561013280549285169290911691909117905560001961013a556136ed83611d76565b6117d08161157c565b6000805b8354821015613741578284838154811061371657613716614337565b9060005260206000200154141561372f57506001613741565b816137398161437b565b9250506136fa565b835461374f9060019061471d565b8210156137ad5783613762836001614363565b8154811061377257613772614337565b906000526020600020015484838154811061378f5761378f614337565b600091825260209091200155816137a58161437b565b925050613741565b801561335f57838054806137c3576137c3614998565b6001900381819060005260206000200160009055905550505050565b606083156137ee57508161115b565b8251156137fe5782518084602001fd5b8160405162461bcd60e51b81526004016108b49190613d0e565b600061386d826040518060400160405280602081526020017f5361666545524332303a206c6f772d6c6576656c2063616c6c206661696c6564815250856001600160a01b03166139e89092919063ffffffff16565b805190915015612faa578080602001905181019061388b91906146b5565b612faa5760405162461bcd60e51b815260206004820152602a60248201527f5361666545524332303a204552433230206f7065726174696f6e20646964206e6044820152691bdd081cdd58d8d9595960b21b60648201526084016108b4565b600054610100900460ff16610c325760405162461bcd60e51b81526004016108b4906146d2565b600054610100900460ff166139385760405162461bcd60e51b81526004016108b4906146d2565b610b23816139f7565b613949613a0a565b610b2381613a31565b336001600160a01b038216141561154b5760405162461bcd60e51b81526004016108b490614481565b600054610100900460ff166139a25760405162461bcd60e51b81526004016108b4906146d2565b6099805460ff60a01b19169055565b600054610100900460ff166139d85760405162461bcd60e51b81526004016108b4906146d2565b6139e06138ea565b610c326138ea565b606061318e8484600085613a63565b8051611017906067906020840190613b8b565b600054610100900460ff166139e05760405162461bcd60e51b81526004016108b4906146d2565b336001600160a01b0382161415613a5a5760405162461bcd60e51b81526004016108b490614481565b610b23816115dd565b606082471015613ac45760405162461bcd60e51b815260206004820152602660248201527f416464726573733a20696e73756666696369656e742062616c616e636520666f6044820152651c8818d85b1b60d21b60648201526084016108b4565b843b613b125760405162461bcd60e51b815260206004820152601d60248201527f416464726573733a2063616c6c20746f206e6f6e2d636f6e747261637400000060448201526064016108b4565b600080866001600160a01b03168587604051613b2e919061489c565b60006040518083038185875af1925050503d8060008114613b6b576040519150601f19603f3d011682016040523d82523d6000602084013e613b70565b606091505b5091509150613b808282866137df565b979650505050505050565b828054613b97906142fc565b90600052602060002090601f016020900481019282613bb95760008555613bff565b82601f10613bd257805160ff1916838001178555613bff565b82800160010185558215613bff579182015b82811115613bff578251825591602001919060010190613be4565b50613c0b929150613c0f565b5090565b5b80821115613c0b5760008155600101613c10565b80356001600160a01b0381168114613c3b57600080fd5b919050565b60008060408385031215613c5357600080fd5b613c5c83613c24565b946020939093013593505050565b6001600160e01b031981168114610b2357600080fd5b600060208284031215613c9257600080fd5b813561115b81613c6a565b600060208284031215613caf57600080fd5b5035919050565b60005b83811015613cd1578181015183820152602001613cb9565b8381111561335f5750506000910152565b60008151808452613cfa816020860160208601613cb6565b601f01601f19169290920160200192915050565b60208152600061115b6020830184613ce2565b600060208284031215613d3357600080fd5b61115b82613c24565b600081518084526020808501945080840160005b83811015613d6c57815187529582019590820190600101613d50565b509495945050505050565b60208152600061115b6020830184613d3c565b634e487b7160e01b600052604160045260246000fd5b601f8201601f191681016001600160401b0381118282101715613dc557613dc5613d8a565b6040525050565b60006001600160401b03821115613de557613de5613d8a565b5060051b60200190565b600082601f830112613e0057600080fd5b81356020613e0d82613dcc565b604051613e1a8282613da0565b83815260059390931b8501820192828101915086841115613e3a57600080fd5b8286015b84811015613e555780358352918301918301613e3e565b509695505050505050565b600082601f830112613e7157600080fd5b81356001600160401b03811115613e8a57613e8a613d8a565b604051613ea1601f8301601f191660200182613da0565b818152846020838601011115613eb657600080fd5b816020850160208301376000918101602001919091529392505050565b600080600080600060a08688031215613eeb57600080fd5b613ef486613c24565b9450613f0260208701613c24565b935060408601356001600160401b0380821115613f1e57600080fd5b613f2a89838a01613def565b94506060880135915080821115613f4057600080fd5b613f4c89838a01613def565b93506080880135915080821115613f6257600080fd5b50613f6f88828901613e60565b9150509295509295909350565b60008060408385031215613f8f57600080fd5b82356001600160401b0380821115613fa657600080fd5b818501915085601f830112613fba57600080fd5b81356020613fc782613dcc565b604051613fd48282613da0565b83815260059390931b8501820192828101915089841115613ff457600080fd5b948201945b838610156140195761400a86613c24565b82529482019490820190613ff9565b9650508601359250508082111561402f57600080fd5b5061403c85828601613def565b9150509250929050565b6000806040838503121561405957600080fd5b61406283613c24565b915060208301356001600160401b0381111561407d57600080fd5b61403c85828601613e60565b6000806040838503121561409c57600080fd5b823591506140ac60208401613c24565b90509250929050565b6000602082840312156140c757600080fd5b81356001600160401b038111156140dd57600080fd5b61318e84828501613e60565b8015158114610b2357600080fd5b6000806040838503121561410a57600080fd5b61411383613c24565b91506020830135614123816140e9565b809150509250929050565b6000806040838503121561414157600080fd5b82356001600160f81b038116811461415857600080fd5b9150602083013560ff8116811461412357600080fd5b6000806040838503121561418157600080fd5b61418a83613c24565b91506140ac60208401613c24565b600080600080600060a086880312156141b057600080fd5b6141b986613c24565b94506141c760208701613c24565b9350604086013592506060860135915060808601356001600160401b038111156141f057600080fd5b613f6f88828901613e60565b60008060008060008060008060006101208a8c03121561421b57600080fd5b89356001600160401b038082111561423257600080fd5b61423e8d838e01613e60565b9a5060208c013591508082111561425457600080fd5b6142608d838e01613e60565b995061426e60408d01613c24565b985061427c60608d01613c24565b975061428a60808d01613c24565b965060a08c01359150808211156142a057600080fd5b6142ac8d838e01613e60565b955060c08c01359150808211156142c257600080fd5b506142cf8c828d01613e60565b9350506142de60e08b01613c24565b91506142ed6101008b01613c24565b90509295985092959850929598565b600181811c9082168061431057607f821691505b6020821081141561433157634e487b7160e01b600052602260045260246000fd5b50919050565b634e487b7160e01b600052603260045260246000fd5b634e487b7160e01b600052601160045260246000fd5b600082198211156143765761437661434d565b500190565b600060001982141561438f5761438f61434d565b5060010190565b6020808252600f908201526e676f7665726e616e6365206f6e6c7960881b604082015260600190565b6020808252602c908201527f46756e6374696f6e206d7573742062652063616c6c6564207468726f7567682060408201526b19195b1959d85d1958d85b1b60a21b606082015260800190565b6020808252602c908201527f46756e6374696f6e206d7573742062652063616c6c6564207468726f7567682060408201526b6163746976652070726f787960a01b606082015260800190565b60208082526010908201526f14185d5cd8589b194e881c185d5cd95960821b604082015260600190565b6020808252600f908201526e696e76616c6964206164647265737360881b604082015260600190565b60006001600160f81b03828116848216811515828404821116156144d0576144d061434d565b02949350505050565b60208082526028908201527f455243313135353a2069647320616e6420616d6f756e7473206c656e677468206040820152670dad2e6dac2e8c6d60c31b606082015260800190565b60208082526025908201527f455243313135353a207472616e7366657220746f20746865207a65726f206164604082015264647265737360d81b606082015260800190565b6020808252602a908201527f455243313135353a20696e73756666696369656e742062616c616e636520666f60408201526939103a3930b739b332b960b11b606082015260800190565b6040815260006145c36040830185613d3c565b8281036020840152612dcc8185613d3c565b602080825260069082015265085a5b9c1d5d60d21b604082015260600190565b6000806040838503121561460857600080fd5b825191506020808401516001600160401b0381111561462657600080fd5b8401601f8101861361463757600080fd5b805161464281613dcc565b60405161464f8282613da0565b82815260059290921b830184019184810191508883111561466f57600080fd5b928401925b8284101561468d57835182529284019290840190614674565b80955050505050509250929050565b6000602082840312156146ae57600080fd5b5051919050565b6000602082840312156146c757600080fd5b815161115b816140e9565b6020808252602b908201527f496e697469616c697a61626c653a20636f6e7472616374206973206e6f74206960408201526a6e697469616c697a696e6760a81b606082015260800190565b60008282101561472f5761472f61434d565b500390565b6001600160a01b0386811682528516602082015260a06040820181905260009061476090830186613d3c565b82810360608401526147728186613d3c565b905082810360808401526147868185613ce2565b98975050505050505050565b6000602082840312156147a457600080fd5b815161115b81613c6a565b600060033d11156147c85760046000803e5060005160e01c5b90565b600060443d10156147d95790565b6040516003193d81016004833e81513d6001600160401b03816024840111818411171561480857505050505090565b82850191508151818111156148205750505050505090565b843d870101602082850101111561483a5750505050505090565b61484960208286010187613da0565b509095945050505050565b60208082526028908201527f455243313135353a204552433131353552656365697665722072656a656374656040820152676420746f6b656e7360c01b606082015260800190565b600082516148ae818460208701613cb6565b9190910192915050565b60008160001904831182151516156148d2576148d261434d565b500290565b60208082526023908201527f455243313135353a206275726e2066726f6d20746865207a65726f206164647260408201526265737360e81b606082015260800190565b60208082526024908201527f455243313135353a206275726e20616d6f756e7420657863656564732062616c604082015263616e636560e01b606082015260800190565b6001600160a01b03868116825285166020820152604081018490526060810183905260a060808201819052600090613b8090830184613ce2565b634e487b7160e01b600052603160045260246000fdfe416464726573733a206c6f772d6c6576656c2064656c65676174652063616c6c206661696c6564a264697066735822122047b251092f765228f3a60c5d997d1d8ceb7779656340768f7230bf89c36f167f64736f6c63430008090033",
    "linkReferences": {}
  },
  "methodIdentifiers": {
    "MAX_LOCK_PERIOD()": "f5540162",
    "SECONDS_PER_MONTH()": "10786deb",
    "YOP_ADDRESS()": "3f9769b8",
    "acceptGovernance()": "238efcbc",
    "accessControlManager()": "b4a0bdf3",
    "balanceOf(address,uint256)": "00fdd58e",
    "balanceOfBatch(address[],uint256[])": "4e1273f4",
    "contractURI()": "e8a3d485",
    "gatekeeper()": "a59c9c27",
    "governance()": "5aa6e675",
    "initialize(string,string,address,address,address,string,string,address,address)": "f41b1906",
    "isApprovedForAll(address,address)": "e985e9c5",
    "minStakeAmount()": "f1887684",
    "name()": "06fdde03",
    "owner()": "8da5cb5b",
    "owners(uint256)": "025e7c27",
    "pause()": "8456cb59",
    "paused()": "5c975abb",
    "pendingGovernance()": "f39c38a0",
    "proposeGovernance(address)": "c373a08e",
    "safeBatchTransferFrom(address,address,uint256[],uint256[],bytes)": "2eb2c2d6",
    "safeTransferFrom(address,address,uint256,uint256,bytes)": "f242432a",
    "setAccessControlManager(address)": "0e32cb86",
    "setApprovalForAll(address,bool)": "a22cb465",
    "setContractURI(string)": "938e3d7b",
    "setGatekeeper(address)": "fbb97956",
    "setMinStakeAmount(uint256)": "eb4af045",
    "setStakingLimit(uint256)": "6cb455b7",
    "stake(uint248,uint8)": "be4499ea",
    "stakes(uint256)": "d5a44f86",
    "stakesFor(address)": "25a1dfe0",
    "stakingLimit()": "55ba2f4f",
    "supportsInterface(bytes4)": "01ffc9a7",
    "symbol()": "95d89b41",
    "totalWorkingSupply()": "24384783",
    "unpause()": "3f4ba83a",
    "unstakeAll(address)": "a0d6ff9a",
    "unstakeSingle(uint256,address)": "71ed92fa",
    "upgradeTo(address)": "3659cfe6",
    "upgradeToAndCall(address,bytes)": "4f1ef286",
    "uri(uint256)": "0e89341c",
    "workingBalanceOf(address)": "0c7c97c7",
    "workingBalanceOfStake(uint256)": "84758fff",
    "yopRewards()": "471fcb41"
  },
  "id": 34
}